{
  "_format": "hh-sol-artifact-1",
  "contractName": "TraitColor",
  "sourceName": "contracts/TraitColor.sol",
  "abi": [
    {
      "inputs": [],
      "name": "getDSLHex",
      "outputs": [
        {
          "internalType": "bytes",
          "name": "data",
          "type": "bytes"
        }
      ],
      "stateMutability": "pure",
      "type": "function"
    }
  ],
  "bytecode": "0x608060405234801561001057600080fd5b506104ff806100206000396000f3fe608060405234801561001057600080fd5b506004361061002b5760003560e01c8063ed0ac57114610030575b600080fd5b61003861004e565b60405161004591906100e7565b60405180910390f35b60606000604051806103800160405280610360815260200161016a6103609139905060405191508051808352602082016020840160005b838110156100a0578083015181830152602081019050610085565b508281016040525050505090565b60006100b982610109565b6100c38185610114565b93506100d3818560208601610125565b6100dc81610158565b840191505092915050565b6000602082019050818103600083015261010181846100ae565b905092915050565b600081519050919050565b600082825260208201905092915050565b60005b83811015610143578082015181840152602081019050610128565b83811115610152576000848401525b50505050565b6000601f19601f830116905091905056fed9001600a4011700a401c400c5001e00012061002500102072006f00740061007400650028003800390020002e00350020002e0035002900c600140000401300ff00c94f8600c6001400324013009500964e8600c600140064401300e400e01886008500cf001e00012062001800000019000000160064401700644027000e207500730065007200530070006100630065004f006e005500730065003c000e207500730065007200530070006100630065004f006e00550073006500d9002b000c206600720061006300740061006c004e006f006900730065003d0012103e0003003f00650028000a20740075007200620075006c0065006e00630065009900d9002b000c206600720061006300740061006c004e006f006900730065003d002e103e0004003f000a0128001020740075007200620075006c0065006e006300650043007200610063006b0073009900d0002b00092068007500650052006f0074006100740065002c002800280003206800750065009000d0002c00272031002000300020003000200030002000300020003000200031002000300020003000200030002000300020003000200031002000300020003000200030002000300020003000200031002000300028000b2063007200610063006b00730043006f006c006f0072009000d90029000a20740075007200620075006c0065006e00630065002a000320680075006500400008206d0075006c007400690070006c00790028000b2062006100730065005000610074007400650072006e009900d90029000b2062006100730065005000610074007400650072006e002a000b2063007200610063006b00730043006f006c006f007200400008206d0075006c007400690070006c007900280003206f00750074009900d90029001020740075007200620075006c0065006e006300650043007200610063006b0073002a000d2053006f00750072006300650047007200610070006800690063000e000a0041000120520042000120470028000f2064006900730070006c00610063006500640043007200610063006b0073009900d700d600290003206f00750074009600d60029000d2053006f0075007200630065004700720061007000680069006300960097008f008400c70016006440170064400a00012061002600012062001d00fa1087009900a2646970667358221220c48c60ebe2df961a9ff604431ccf244738d989eec849a6214b8d653ba5de5d0864736f6c63430008000033",
  "linkReferences": {},
  "deployedLinkReferences": {}
}