{"contracts/TraitEyes.sol":{"TraitEyes":{"abi":[{"inputs":[],"name":"getDSLHex","outputs":[{"internalType":"bytes","name":"data","type":"bytes"}],"stateMutability":"pure","type":"function"}],"evm":{"bytecode":{"linkReferences":{},"object":"608060405234801561001057600080fd5b50612b41806100206000396000f3fe608060405234801561001057600080fd5b506004361061002b5760003560e01c8063ed0ac57114610030575b600080fd5b61003861004e565b60405161004591906100e7565b60405180910390f35b60606000604051806129e001604052806129a2815260200161016a6129a29139905060405191508051808352602082016020840160005b838110156100a0578083015181830152602081019050610085565b508281016040525050505090565b60006100b982610109565b6100c38185610114565b93506100d3818560208601610125565b6100dc81610158565b840191505092915050565b6000602082019050818103600083015261010181846100ae565b905092915050565b600081519050919050565b600082825260208201905092915050565b60005b83811015610143578082015181840152602081019050610128565b83811115610152576000848401525b50505050565b6000601f19601f830116905091905056fed9001600a4011700a401c2003b00042065007900650073000200e1204d003100380038002e003000390020003200300037002e003200380063002d0033002e00360039002d0033002e00370037002d00310032002e00310031002d00310033002e00310032002d00310035002e00340031002d00320035002e00320032002d002e00310039002d002e0037002d0031002e00390035002d0037002e00340032002d002e00350035002d00310034002e00380039002e0035002d0032002e0036003700200031002e00320039002d0034002e0037003900200033002e00300037002d0036002e0035003400200031002e00380035002d0031002e0038003100200033002e00390038002d0032002e0034003300200034002e00390037002d0032002e0037003100200034002e00300034002d0031002e0031003300200039002e0032002d002e00340039002000310033002e0030003900200032002e0036003500200034002e0034003600200033002e0035003900200035002e0030003800200038002e0036003500200035002e003200200039002e00380032006c002d0033002e00320031002000310031002e003300350063002d0032002e003400200038002e00350031002d0034002e00370039002000310037002e00300033002d0037002e00310036002000320035002e00350035005a006d00300020003000630032002e00300035002d002e00370039002000310037002e00320034002d0036002e00370031002000320035002e00330032002d00310032002e0035003500200032002e00360036002d0031002e0039003300200034002e00330031002d0033002e0036003700200035002e00330039002d0034002e0039003800200031002e0037002d0032002e0030003700200033002e00360034002d0034002e0034003400200034002e00330031002d0037002e0038003900200031002e00310039002d0036002e00310032002d0032002e00350032002d00310030002e00390035002d0032002e00360039002d00310031002e00310037002d0032002e00380036002d0033002e00360031002d0037002e00360039002d0036002e00310032002d00310032002e00320038002d0035002e00340035002d0031002e00340034002e00320031002d0033002e00370038002e00370034002d0036002e0032003100200032002e00320034002d0031002e00350036002e00390037002d0032002e0036003900200032002e00300034002d0033002e0034003600200032002e0039006c002d0033002e00320031002000310031002e003300350063002d0032002e003400200038002e00350031002d0034002e00370039002000310037002e00300033002d0037002e00310036002000320035002e00350035005a006d002d00350033002e00340035002d00320039002e003500390063002d002e00310034002d0031002e00330032002d002e00310039002d0032002e00380035002d002e00300034002d0034002e00350033002e00300036002d002e00370031002e00320034002d0032002e00320039002e00370038002d0034002e00320035002e00310032002d002e00340034002e00330038002d0031002e00330031002e0038002d0032002e00330039002e00320032002d002e00350036002e0038002d0031002e0039003700200031002e00380032002d0033002e0037002e00370039002d0031002e0033003300200031002e00330033002d0032002e0032003600200032002e00330037002d0033002e0033002e00360034002d002e0036003400200031002e00310039002d0031002e0030003500200031002e0034002d0031002e00310039002e00360034002d002e0034003600200031002e00360031002d0031002e0030003600200032002e00380039002d0031002e0035002e00360038002d002e0032003400200031002e00360034002d002e0035003600200032002e00390035002d002e00350039002e00350031002d002e0030003100200032002e00310034002d002e0030003300200033002e0036002e00370034002e00370031002e0033003800200031002e00320036002e0038003700200031002e00320036002e00380037002e00320039002e00320036002e00350032002e00350031002e00370033002e00370035002e00320037002e0033002e00340035002e00350031002e00360035002e00370039002e00340034002e00360033002e0038003400200031002e0032002e0037003300200031002e00370039002d002e00300032002e00310031002d002e00300039002e00330032002d002e00320034002e00370036002d002e00300037002e00320031002d002e00300039002e00320035002d002e00310038002e00350032002d002e00320031002e0036002d002e00310038002e00350037002d002e00320037002e00380031002d002e00310033002e00330034002d002e00320037002e0036002d002e00340033002e00390031002d002e00310035002e00320039002d002e00310038002e00330032002d002e00330033002e00360031002d002e00310031002e00320032002d002e00310034002e0033002d002e00320037002e00350036002d002e0031002e00320031002d002e00310036002e00330031002d002e00320037002e00350033002d002e00320037002e00350031002d002e00320037002e00350033002d002e0035002e00390039002d002e00320033002e00340034002d002e00330034002e00360035002d002e0035002e0039002d002e00320032002e00330036002d002e00340031002e00360031002d002e00350035002e0038002d002e00320036002e00330034002d002e00340036002e0036002d002e00370037002e00390031002d002e00320031002e00320031002d002e00320039002e00320036002d002e00350037002e00350035002d002e00310031002e00310032002d002e00310036002e00310037002d002e00340033002e00340037002d002e00340035002e0035002d002e00360037002e00370035002d002e00370037002e00380033002d002e00320034002e00320033002d002e00340033002e00330037002d002e00370031002e00350039002d002e00320031002e00310036002d002e00350031002e00330038002d002e00380039002e00360032002d002e00330035002e00320032002d002e00330036002e0032002d002e0038002e00340037002d002e00330037002e00320033002d002e00330036002e00320034002d002e0037002e00340035002d002e00320038002e00310037002d002e00350033002e00330032002d002e00380036002e00340039002d002e00310034002e00300037002d002e00330035002e00310036002d002e00370037002e00330034002d002e00330036002e00310036002d002e0035002e00320031002d00310020002e00340032002d002e0038002e00330034002d002e00370035002e00330033002d002e00390034002e0034002d002e00330039002e00310035002d002e00340037002e00310037002d00310020002e00330038002d002e00330032002e00310033002d002e00340032002e00310037002d002e00360036002e00320037002d002e00320035002e0031002d002e00360032002e00320035002d0031002e00330039002e00350032002d0031002e0031002e00330039002d0031002e00300035002e00330035002d0032002e0032002e00370035002d002e0033002e00310031002d002e00360036002e00320034002d0031002e00310038002e00340031002d002e00330032002e0031002d002e00350038002e00310038002d002e00370035002e00320034005a006d00320035002e00350037002d00310038002e0036003700630031002e00310035002d002e003200200032002e00300035002d002e0031003900200032002e00330037002d002e00310038002e00390036002e0030003200200031002e00360038002e0031003500200031002e00380034002e00310038002e00330031002e00300036002e00380038002e0032003600200031002e00380034002e00350034002000300020003000200032002e00320032002e0037003900200034002e0039003800200032002e00370035002e00320034002e00310037002e00370031002e00350035002e00370036002e0036006c002e0036002e003500380063002e00320036002e00320035002e00330039002e00330038002e00330037002e00350034002000300020002e00300033002000300020002e00300033002d002e00310031002e0033002000300020002e00300031002d002e00300035002e00310034002d002e00300039002e00320036002d002e00300036002e00310037002d002e00300037002e00320031002d002e00310034002e00340035002d002e00300039002e00320038002d002e00300039002e00320036002d002e00310033002e00340031002d002e00300034002e00310032002d002e00300036002e00320032002d002e00310031002e00340032002d002e00300036002e00320036002d002e0031002e00330039002d002e0031002e00340031002000300020002e00300033002000300020002e00300035002d002e00300031002e00300035002d002e00300036002e00300033002d002e00330035002d002e00350032002d002e00350037002d002e00380037002d002e00330034002d002e00350035002d002e00360038002d002e00380039002d0031002e00300038002d0031002e0033002d002e00350033002d002e00350034002d002e00390038002d002e00380036002d0031002e0036002d0031002e0033002d002e00340038002d002e00330034002d0031002e00330032002d002e00390033002d0032002e00350033002d0031002e00350031002d002e00350035002d002e00320036002d0031002e00320031002d002e00350038002d0032002e0031002d002e00380033002d002e00320033002d002e00300036002d0032002e00390034002d002e00370039002d0035002e00390031002e00300034002d002e00330035002e0031002d002e0039002e00320036002d0031002e00350037002e00350038002d002e00330033002e00310036002d0031002e00300033002e00340039002d0031002e0038003100200031002e00300039002d002e00360032002e00340038002d0031002e00310032002e00390038002d0031002e00310039002e00390031002d002e00300032002d002e00300032002e00300032002d002e00310034002e0031002d002e00330037002e00300036002d002e00310036002e00310031002d002e00320039002e00310032002d002e00330032002e00320036002d002e0035003800200031002e00370036002d0031002e0036003200200031002e00370036002d0031002e00360032002e00350039002d002e00340031002e00380039002d002e0036003100200031002e00310033002d002e00370035002e00320036002d002e00310035002e00370039002d002e0034003200200031002e00350031002d002e00360037002e00360039002d002e0032003400200031002e00320034002d002e0033003300200031002e00360035002d002e00340031005a006d00360032002e0037002000320033002e003600370063002d002e00320031002e00370035002d002e0035003200200031002e00360031002d002e0039003700200032002e00350033002d002e0036003900200031002e00340031002d0031002e003500200032002e00350032002d0032002e003200200033002e0033003400200033002e00330035002d002e0032003900200036002e00310038002d002e0034003600200038002e00330032002d002e0035003600200032002e00360034002d002e0031003300200034002e00360033002d002e0031003700200036002e00360038002d002e0032003200200033002e00300038002d002e0030003700200035002e00310031002d002e0031003200200037002e00380039002d002e0030003900200032002e00390038002e0030003300200035002e00320033002e0031003300200037002e00310034002e0032003200200032002e00330037002e0031003100200032002e00390039002e0031003800200034002e00340035002e0032003700200031002e00310031002e0030003700200031002e00360037002e0031003100200032002e00320032002e0031003200200032002e00350033002e0030003600200032002e00370039002d002e0032003500200032002e00380036002d002e00340032002e00300034002d002e00300039002d002e00300033002d002e00330039002d002e00310037002d002e00390037002d002e00300037002d002e00320039002d002e00310034002d002e00350039002d002e00320037002d002e00390038002d002e00300037002d002e0032002d002e00310037002d002e0035002d002e00330035002d002e00380038002d002e00310035002d002e00330032002d002e0033002d002e00360033002d002e00350037002d002e00390037002d002e00310039002d002e00320034002d002e00350032002d002e00360035002d0031002e00300039002d002e00390032002d002e00300039002d002e00300034002d002e00330037002d002e00310037002d002e00370035002d002e00320034002d002e00320039002d002e00300035002d002e00350032002d002e00300034002d002e0036002d002e00300034002d002e00330032002d002e00300032002d002e00370037002d002e00300034002d0031002e00390037002d002e00300038002d0033002e00380038002d002e00310034002d0035002e00380031002d002e0032002d0037002e00390036002d002e00320034002d0031002e00390036002d002e00300033002d0034002e00320038002d002e00300036002d0039002e00370033002d002e00300033002d0033002e00330033002e00300032002d0037002e00370032002e00300036002d00310032002e00390035002e00310034005a001c000c20660069006c006c003a00230039006200300030006600660082009900d9001600a4011700a401c2000200bd204d003100380037002e003500320020003200300039002e0033003800630031002e00390033002d002e00370031002000310037002e00370032002d0036002e00350039002000320036002e00390032002d00310033002e00300031002e00370035002d002e0035003200200033002e00390034002d0032002e0037003900200037002e00300039002d0037002e0030003200200033002e00310031002d0034002e0031003700200033002e00360039002d0036002e0039003100200033002e00380038002d0038002e00320031002e00310033002d002e0039002e00340036002d0033002e00320035002d002e00320038002d0035002e00390035002d002e00310039002d002e00360039002d002e00370032002d0032002e0034002d0032002e00350035002d0034002e00370036002d0031002e0032002d0031002e00350034002d0034002e00330032002d0035002e00350035002d0039002e00350035002d0036002e00360036002d0033002e00370037002d002e0038002d0036002e00370034002e00330032002d0038002e00300034002e00380033002d0032002e00320033002e00380038002d0033002e0039003200200032002e00310033002d0035002e0030003200200033002e00300039002d002e0037003600200032002e00340036002d0031002e0035003200200034002e00390032002d0032002e0032003700200037002e003300390020003000200030002d0031002e0031003300200033002e00370032002d0032002e0032003600200037002e00340033002d0031002e0035003400200035002e00310032002d0034002e00330035002000310034002e00350038002d0037002e00390032002000320036002e00380034005a006d0030002000300063002d0032002e00370032002d0032002e00360038002d00310033002e00360039002d00310033002e00390032002d00310036002e00360038002d00320038002e00380033002d002e00350038002d0032002e0039002d0031002e00370034002d00390020002e00310036002d00310035002e00340033002e00340039002d0031002e0036003600200031002e00330039002d0034002e0035003800200033002e00370031002d0036002e0038003100200031002e00390031002d0031002e0038003300200033002e00380034002d0032002e0032003700200035002e00340039002d0032002e0036003200200031002e00370034002d002e0033003700200037002e00300031002d0031002e00330039002000310032002e0034003800200032002e0034003800200034002e0033003600200033002e0030003900200036002e0034003800200037002e0036003100200037002e0032003700200039002e00350033002d0031002e0035003200200034002e00390031002d0033002e0030003200200039002e00380035002d0034002e00350033002000310034002e00380033002d0032002e0037003200200039002e00300032002d0035002e00330036002000310037002e00390037002d0037002e00390032002000320036002e00380034005a006d002d00320037002e00360039002d00350030002e003500380063002e00340038002d002e0031003400200031002e00300031002d002e0032003900200031002e00370034002d002e00330038002e00390034002d002e0031003100200031002e00360037002d002e0030003500200032002e00310038002000300020002e0033002e00300033002e00370031002e0030003700200031002e00320036002e00310039002e00350032002e00310032002e00390032002e0032003600200031002e00320038002e00330039002e0034002e00310034002e0037002e00320036002e00390036002e00330037002e00330035002e00310034002e00360033002e00320036002000310020002e00340035002e00340036002e00320033002e0038002e00340033002000310020002e00350035002e00310034002e00300039002e00340031002e00320035002e00390033002e0035003900200031002e00300034002e00360037002e00360038002e00340036002e00380033002e0035003500200030002000300020002e00320032002e00310033002e00360033002e00340036002e00310038002e00310035002e00330033002e00320037002e00330032002e00340033002000300020002e00300037002d002e00300033002e00300038002d002e00310031002e00320035002d002e00300032002e00300035002d002e00300037002e00310038002d002e00310037002e00340035002d002e00300038002e00320031002d002e00310032002e00330031002d002e00310036002e00340032002d002e00300038002e00320032002d002e00300036002e00310038002d002e0032002e00350035002d002e0031002e00320039002d002e00310032002e00330032002d002e00310034002e00340031002d002e00300034002e00310035002d002e00300038002e00330031002d002e00300038002e00330031002d002e00300035002e00310038002d002e00300035002e00310039002d002e00300036002e0032002d002e00300037002e00300037002d002e0036002d002e00340034002d002e00370034002d002e003500360020003000200030002d002e00320035002d002e00320033002d0031002e00360033002d0031002e00330035002d002e00390035002d002e00370037002d0031002e00380032002d0031002e00320032002d0032002e00340031002d0031002e00350031002d002e00360031002d002e00330031002d0031002e00320035002d002e00360033002d0032002e00310038002d002e00380037002d002e00380036002d002e00320032002d0031002e00350033002d002e00320037002d0032002e00300037002d002e0033002d0031002e00330033002d002e00300038002d0032002e00330035002e00300036002d0032002e00360038002e00310031002d002e0036002e00300039002d0031002e00340035002e00320033002d0032002e00340031002e00360034002d0031002e00380031002e00370039002d0032002e0037003400200032002e00300032002d0032002e0039003600200031002e00380033002d002e00310033002d002e00310031002e00310033002d002e00360032002e00320039002d002e00380036002e00310037002d002e00320037002e00330032002d002e003400200031002e00320039002d0031002e00310031002e00360036002d002e0034003900200031002e00300038002d002e0037003900200031002e00350033002d0031002e00300035002e00340039002d002e00320038002e00380037002d002e0034003500200031002e00310031002d002e00350036002e00320031002d002e00300039002e00380031002d002e0033003500200031002e00360033002d002e00350039005a006d002d00320035002e00330034002000310038002e003900340063002d002e00330033002d0032002e00340031002d002e00320031002d0034002e00330035002d002e00300034002d0035002e00360035002e00300034002d002e00330034002e00320031002d0031002e00350035002e00360033002d0033002e0031002e00370034002d0032002e0037003300200031002e00370035002d0034002e0035003600200032002e00330039002d0035002e00370033002e00370038002d0031002e003400200031002e00340034002d0032002e003600200032002e00360036002d0033002e00380034002e00340035002d002e0034003600200031002e0033002d0031002e0032003500200032002e00340038002d0031002e00390034002e00330033002d002e0031003900200031002e00310034002d002e0036003400200032002e00320033002d002e00390038002e00380031002d002e0032003500200032002e00330033002d002e003700200034002e00320036002d002e00340032002e00360031002e0030003900200032002e00310036002e0033003300200033002e0036003600200031002e0034003700200031002e003600200031002e0032003100200032002e0031003100200032002e0036003600200031002e0039003900200033002e00300034002000300020002e00300031002d002e00300035002e00310038002d002e00310032002e00330038002d002e00300039002e00320039002d002e00310036002e0035002d002e00310039002e00350038002d002e0033003900200031002e00310036002d002e0033003600200031002e00310033002d002e0034003800200031002e00340033002d002e0032002e00350034002d002e0034002e00390035002d002e0035003200200031002e0032002d002e00300037002e00310035002d002e00300036002e00310033002d002e00340038002e00390035002d002e00300036002e00310032002d002e00320037002e00350032002d002e0035002e00390037002d002e0034002e00370038002d002e00330039002e00370037002d002e00340039002e00390035002d002e00320035002e00340037002d002e00330039002e00370034002d002e0036003400200031002e00300039002d002e00300039002e00310033002d002e0033002e00340033002d002e0036002e00370037002d002e00320031002e00320034002d002e00320031002e00320031002d002e00360036002e00360039002d002e00310034002e00310035002d002e00310034002e00310035002d002e00380033002e0039002d002e00320036002e00320039002d002e0034002e00340033002d002e00340031002e00340034002d002e00320031002e00320032002d002e00350036002e00350038002d0031002e00300037002e00390038002d002e00330034002e00320037002d002e00360032002e00340035002d002e00380039002e00360032002d002e00330032002e0032002d002e00330036002e00320031002d002e0038002e00340037002d002e00390035002e00350037002d0031002e00310031002e00370034002d0031002e0037003300200031002e00300033002d002e00300032002000300020003000200030002d002e00360031002e00320036002d0031002e0032002e00350031002d0031002e00310036002e00340039002d0031002e00330037002e00350038002d002e00360031002e00320036002d0031002e0031002e00340034002d0031002e00350037002e00360032002d002e0034002e00310035002d002e00340038002e00310038002d0031002e00310038002e00340035002d002e00330035002e00310033002d002e00340036002e00310038002d002e00360038002e00320036002d002e00330033002e00310032002d002e00350035002e0032002d002e00390038002e00330034002d002e00310037002e00300036002d002e00380036002e00320039002d0031002e00340031002e00340038002d002e00370031002e00320034002d002e00380032002e00320039002d0031002e00310038002e00340031002d002e00330038002e00310033002d002e0037002e00320032002d002e00390031002e00320038005a006d00390030002e0039003900200032002e003900340063002d002e00300036002e00350031002d002e0031003700200031002e0032002d002e0033003900200031002e00390038002d002e00320037002e00390037002d002e0035003700200031002e00360035002d002e0038003700200032002e0033002d002e00310034002e00330031002d002e0035003400200031002e00310038002d0031002e0031003700200032002e00320031002d002e00340032002e0037002d002e0037003800200031002e00310038002d0031002e0032003700200031002e00380034002d002e00340035002e00360031002d002e0038003300200031002e0031002d0031002e0031003200200031002e0034003600200031002e00330033002d002e0032003200200033002e00310036002d002e0034003800200035002e00330035002d002e0036003900200031002e00370035002d002e0031003700200033002e00300034002d002e0032003400200034002e00370035002d002e0033003300200032002e00390033002d002e0031003600200035002e00320032002d002e0032003100200036002e00330037002d002e0032003200200031002e00370032002d002e0030003300200032002e00390037002d002e0030003100200034002e003700390020003000200031002e00320038002e0030003100200032002e00390037002e0030003300200035002e00320031002e0030003900200031002e00380033002e0030003500200033002e00330039002e003100200035002e0035002e0032003200200032002e00320039002e0031003400200032002e00360036002e0032003200200034002e00370031002e0033002e00320036002e00300031002e00360039002e0030003600200031002e00320036002e00300034002e00370031002d002e00300033002e00380035002d002e00310032002e00390033002d002e00320033002e00300037002d002e0031002e0031002d002e00320031002e00300031002d002e00390031002d002e00300037002d002e00350035002d002e0031002d002e00380032002d002e0032002d0031002e00320035002d002e00310031002d002e00340037002d002e00320032002d002e00380032002d002e00330033002d0031002e00310033002d002e00330032002d002e00390033002d002e00350032002d0031002e00350031002d002e00390037002d0032002e00310035002d002e00300034002d002e00300035002d002e00320032002d002e00330031002d002e00350031002d002e0036002d002e00360033002d002e00360036002d0031002e00320033002d002e00390039002d0031002e0037002d0031002e00320035002d002e00330038002d002e00320031002d002e00390036002d002e00350032002d0031002e00370036002d002e00370031002d002e00340031002d002e0031002d002e00370034002d002e00310033002d0031002e00300039002d002e00310036002d002e00330038002d002e00300034002d002e00330039002d002e00300031002d0031002e00350037002d002e00300036002d0031002e00320037002d002e00300035002d0031002e00340035002d002e00300035002d0032002e00310034002d002e00300038002d0032002e00320032002d002e00300039002d0032002e00340037002d002e00310031002d0033002e00390034002d002e00310036002d002e00340038002d002e00300032002d0032002e00340036002d002e00300039002d0034002e00380039002d002e00310034002d0032002e00370036002d002e00300035002d0032002e0037003800200030002d0035002e00390036002d002e00300036002d0031002e00320033002d002e00300032002d0032002e0038002d002e00300035002d0034002e00380037002d002e00310032002d0031002e00360037002d002e00300036002d0033002e00300038002d002e00310033002d0034002e00310035002d002e00310038005a001c000920660069006c006c003a00230066003000640082009900a26469706673582212206d006a097eac15868ddd0003f36103368f4ad6d5fac31ca38f31524fa6166e4064736f6c63430008000033","opcodes":"PUSH1 0x80 PUSH1 0x40 MSTORE CALLVALUE DUP1 ISZERO PUSH2 0x10 JUMPI PUSH1 0x0 DUP1 REVERT JUMPDEST POP PUSH2 0x2B41 DUP1 PUSH2 0x20 PUSH1 0x0 CODECOPY PUSH1 0x0 RETURN INVALID PUSH1 0x80 PUSH1 0x40 MSTORE CALLVALUE DUP1 ISZERO PUSH2 0x10 JUMPI PUSH1 0x0 DUP1 REVERT JUMPDEST POP PUSH1 0x4 CALLDATASIZE LT PUSH2 0x2B JUMPI PUSH1 0x0 CALLDATALOAD PUSH1 0xE0 SHR DUP1 PUSH4 0xED0AC571 EQ PUSH2 0x30 JUMPI JUMPDEST PUSH1 0x0 DUP1 REVERT JUMPDEST PUSH2 0x38 PUSH2 0x4E JUMP JUMPDEST PUSH1 0x40 MLOAD PUSH2 0x45 SWAP2 SWAP1 PUSH2 0xE7 JUMP JUMPDEST PUSH1 0x40 MLOAD DUP1 SWAP2 SUB SWAP1 RETURN JUMPDEST PUSH1 0x60 PUSH1 0x0 PUSH1 0x40 MLOAD DUP1 PUSH2 0x29E0 ADD PUSH1 0x40 MSTORE DUP1 PUSH2 0x29A2 DUP2 MSTORE PUSH1 0x20 ADD PUSH2 0x16A PUSH2 0x29A2 SWAP2 CODECOPY SWAP1 POP PUSH1 0x40 MLOAD SWAP2 POP DUP1 MLOAD DUP1 DUP4 MSTORE PUSH1 0x20 DUP3 ADD PUSH1 0x20 DUP5 ADD PUSH1 0x0 JUMPDEST DUP4 DUP2 LT ISZERO PUSH2 0xA0 JUMPI DUP1 DUP4 ADD MLOAD DUP2 DUP4 ADD MSTORE PUSH1 0x20 DUP2 ADD SWAP1 POP PUSH2 0x85 JUMP JUMPDEST POP DUP3 DUP2 ADD PUSH1 0x40 MSTORE POP POP POP POP SWAP1 JUMP JUMPDEST PUSH1 0x0 PUSH2 0xB9 DUP3 PUSH2 0x109 JUMP JUMPDEST PUSH2 0xC3 DUP2 DUP6 PUSH2 0x114 JUMP JUMPDEST SWAP4 POP PUSH2 0xD3 DUP2 DUP6 PUSH1 0x20 DUP7 ADD PUSH2 0x125 JUMP JUMPDEST PUSH2 0xDC DUP2 PUSH2 0x158 JUMP JUMPDEST DUP5 ADD SWAP2 POP POP SWAP3 SWAP2 POP POP JUMP JUMPDEST PUSH1 0x0 PUSH1 0x20 DUP3 ADD SWAP1 POP DUP2 DUP2 SUB PUSH1 0x0 DUP4 ADD MSTORE PUSH2 0x101 DUP2 DUP5 PUSH2 0xAE JUMP JUMPDEST SWAP1 POP SWAP3 SWAP2 POP POP JUMP JUMPDEST PUSH1 0x0 DUP2 MLOAD SWAP1 POP SWAP2 SWAP1 POP JUMP JUMPDEST PUSH1 0x0 DUP3 DUP3 MSTORE PUSH1 0x20 DUP3 ADD SWAP1 POP SWAP3 SWAP2 POP POP JUMP JUMPDEST PUSH1 0x0 JUMPDEST DUP4 DUP2 LT ISZERO PUSH2 0x143 JUMPI DUP1 DUP3 ADD MLOAD DUP2 DUP5 ADD MSTORE PUSH1 0x20 DUP2 ADD SWAP1 POP PUSH2 0x128 JUMP JUMPDEST DUP4 DUP2 GT ISZERO PUSH2 0x152 JUMPI PUSH1 0x0 DUP5 DUP5 ADD MSTORE JUMPDEST POP POP POP POP JUMP JUMPDEST PUSH1 0x0 PUSH1 0x1F NOT PUSH1 0x1F DUP4 ADD AND SWAP1 POP SWAP2 SWAP1 POP JUMP INVALID 0xD9 STOP AND STOP LOG4 ADD OR STOP LOG4 ADD 0xC2 STOP EXTCODESIZE STOP DIV KECCAK256 PUSH6 0x7900650073 STOP MUL STOP 0xE1 KECCAK256 0x4D STOP BALANCE STOP CODESIZE STOP CODESIZE STOP 0x2E STOP ADDRESS STOP CODECOPY STOP KECCAK256 STOP ORIGIN STOP ADDRESS STOP CALLDATACOPY STOP 0x2E STOP ORIGIN STOP CODESIZE STOP PUSH4 0x2D0033 STOP 0x2E STOP CALLDATASIZE STOP CODECOPY STOP 0x2D STOP CALLER STOP 0x2E STOP CALLDATACOPY STOP CALLDATACOPY STOP 0x2D STOP BALANCE STOP ORIGIN STOP 0x2E STOP BALANCE STOP BALANCE STOP 0x2D STOP BALANCE STOP CALLER STOP 0x2E STOP BALANCE STOP ORIGIN STOP 0x2D STOP BALANCE STOP CALLDATALOAD STOP 0x2E STOP CALLVALUE STOP BALANCE STOP 0x2D STOP ORIGIN STOP CALLDATALOAD STOP 0x2E STOP ORIGIN STOP ORIGIN STOP 0x2D STOP 0x2E STOP BALANCE STOP CODECOPY STOP 0x2D STOP 0x2E STOP CALLDATACOPY STOP 0x2D STOP BALANCE STOP 0x2E STOP CODECOPY STOP CALLDATALOAD STOP 0x2D STOP CALLDATACOPY STOP 0x2E STOP CALLVALUE STOP ORIGIN STOP 0x2D STOP 0x2E STOP CALLDATALOAD STOP CALLDATALOAD STOP 0x2D STOP BALANCE STOP CALLVALUE STOP 0x2E STOP CODESIZE STOP CODECOPY STOP 0x2E STOP CALLDATALOAD STOP 0x2D STOP ORIGIN STOP 0x2E STOP CALLDATASIZE STOP CALLDATACOPY STOP KECCAK256 STOP BALANCE STOP 0x2E STOP ORIGIN STOP CODECOPY STOP 0x2D STOP CALLVALUE STOP 0x2E STOP CALLDATACOPY STOP CODECOPY STOP KECCAK256 STOP CALLER STOP 0x2E STOP ADDRESS STOP CALLDATACOPY STOP 0x2D STOP CALLDATASIZE STOP 0x2E STOP CALLDATALOAD STOP CALLVALUE STOP KECCAK256 STOP BALANCE STOP 0x2E STOP CODESIZE STOP CALLDATALOAD STOP 0x2D STOP BALANCE STOP 0x2E STOP CODESIZE STOP BALANCE STOP KECCAK256 STOP CALLER STOP 0x2E STOP CODECOPY STOP CODESIZE STOP 0x2D STOP ORIGIN STOP 0x2E STOP CALLVALUE STOP CALLER STOP KECCAK256 STOP CALLVALUE STOP 0x2E STOP CODECOPY STOP CALLDATACOPY STOP 0x2D STOP ORIGIN STOP 0x2E STOP CALLDATACOPY STOP BALANCE STOP KECCAK256 STOP CALLVALUE STOP 0x2E STOP ADDRESS STOP CALLVALUE STOP 0x2D STOP BALANCE STOP 0x2E STOP BALANCE STOP CALLER STOP KECCAK256 STOP CODECOPY STOP 0x2E STOP ORIGIN STOP 0x2D STOP 0x2E STOP CALLVALUE STOP CODECOPY STOP KECCAK256 STOP BALANCE STOP CALLER STOP 0x2E STOP ADDRESS STOP CODECOPY STOP KECCAK256 STOP ORIGIN STOP 0x2E STOP CALLDATASIZE STOP CALLDATALOAD STOP KECCAK256 STOP CALLVALUE STOP 0x2E STOP CALLVALUE STOP CALLDATASIZE STOP KECCAK256 STOP CALLER STOP 0x2E STOP CALLDATALOAD STOP CODECOPY STOP KECCAK256 STOP CALLDATALOAD STOP 0x2E STOP ADDRESS STOP CODESIZE STOP KECCAK256 STOP CODESIZE STOP 0x2E STOP CALLDATASIZE STOP CALLDATALOAD STOP KECCAK256 STOP CALLDATALOAD STOP 0x2E STOP ORIGIN STOP KECCAK256 STOP CODECOPY STOP 0x2E STOP CODESIZE STOP ORIGIN STOP PUSH13 0x2D0033002E00320031002000 BALANCE STOP BALANCE STOP 0x2E STOP CALLER STOP CALLDATALOAD STOP PUSH4 0x2D0032 STOP 0x2E STOP CALLVALUE STOP KECCAK256 STOP CODESIZE STOP 0x2E STOP CALLDATALOAD STOP BALANCE STOP 0x2D STOP CALLVALUE STOP 0x2E STOP CALLDATACOPY STOP CODECOPY STOP KECCAK256 STOP BALANCE STOP CALLDATACOPY STOP 0x2E STOP ADDRESS STOP CALLER STOP 0x2D STOP CALLDATACOPY STOP 0x2E STOP BALANCE STOP CALLDATASIZE STOP KECCAK256 STOP ORIGIN STOP CALLDATALOAD STOP 0x2E STOP CALLDATALOAD STOP CALLDATALOAD STOP GAS STOP PUSH14 0x300020003000630032002E0030 STOP CALLDATALOAD STOP 0x2D STOP 0x2E STOP CALLDATACOPY STOP CODECOPY STOP KECCAK256 STOP BALANCE STOP CALLDATACOPY STOP 0x2E STOP ORIGIN STOP CALLVALUE STOP 0x2D STOP CALLDATASIZE STOP 0x2E STOP CALLDATACOPY STOP BALANCE STOP KECCAK256 STOP ORIGIN STOP CALLDATALOAD STOP 0x2E STOP CALLER STOP ORIGIN STOP 0x2D STOP BALANCE STOP ORIGIN STOP 0x2E STOP CALLDATALOAD STOP CALLDATALOAD STOP KECCAK256 STOP ORIGIN STOP 0x2E STOP CALLDATASIZE STOP CALLDATASIZE STOP 0x2D STOP BALANCE STOP 0x2E STOP CODECOPY STOP CALLER STOP KECCAK256 STOP CALLVALUE STOP 0x2E STOP CALLER STOP BALANCE STOP 0x2D STOP CALLER STOP 0x2E STOP CALLDATASIZE STOP CALLDATACOPY STOP KECCAK256 STOP CALLDATALOAD STOP 0x2E STOP CALLER STOP CODECOPY STOP 0x2D STOP CALLVALUE STOP 0x2E STOP CODECOPY STOP CODESIZE STOP KECCAK256 STOP BALANCE STOP 0x2E STOP CALLDATACOPY STOP 0x2D STOP ORIGIN STOP 0x2E STOP ADDRESS STOP CALLDATACOPY STOP KECCAK256 STOP CALLER STOP 0x2E STOP CALLDATASIZE STOP CALLVALUE STOP 0x2D STOP CALLVALUE STOP 0x2E STOP CALLVALUE STOP CALLVALUE STOP KECCAK256 STOP CALLVALUE STOP 0x2E STOP CALLER STOP BALANCE STOP 0x2D STOP CALLDATACOPY STOP 0x2E STOP CODESIZE STOP CODECOPY STOP KECCAK256 STOP BALANCE STOP 0x2E STOP BALANCE STOP CODECOPY STOP 0x2D STOP CALLDATASIZE STOP 0x2E STOP BALANCE STOP ORIGIN STOP 0x2D STOP ORIGIN STOP 0x2E STOP CALLDATALOAD STOP ORIGIN STOP 0x2D STOP BALANCE STOP ADDRESS STOP 0x2E STOP CODECOPY STOP CALLDATALOAD STOP 0x2D STOP ORIGIN STOP 0x2E STOP CALLDATASIZE STOP CODECOPY STOP 0x2D STOP BALANCE STOP BALANCE STOP 0x2E STOP BALANCE STOP CALLDATACOPY STOP 0x2D STOP ORIGIN STOP 0x2E STOP CODESIZE STOP CALLDATASIZE STOP 0x2D STOP CALLER STOP 0x2E STOP CALLDATASIZE STOP BALANCE STOP 0x2D STOP CALLDATACOPY STOP 0x2E STOP CALLDATASIZE STOP CODECOPY STOP 0x2D STOP CALLDATASIZE STOP 0x2E STOP BALANCE STOP ORIGIN STOP 0x2D STOP BALANCE STOP ORIGIN STOP 0x2E STOP ORIGIN STOP CODESIZE STOP 0x2D STOP CALLDATALOAD STOP 0x2E STOP CALLVALUE STOP CALLDATALOAD STOP 0x2D STOP BALANCE STOP 0x2E STOP CALLVALUE STOP CALLVALUE STOP 0x2E STOP ORIGIN STOP BALANCE STOP 0x2D STOP CALLER STOP 0x2E STOP CALLDATACOPY STOP CODESIZE STOP 0x2E STOP CALLDATACOPY STOP CALLVALUE STOP 0x2D STOP CALLDATASIZE STOP 0x2E STOP ORIGIN STOP BALANCE STOP KECCAK256 STOP ORIGIN STOP 0x2E STOP ORIGIN STOP CALLVALUE STOP 0x2D STOP BALANCE STOP 0x2E STOP CALLDATALOAD STOP CALLDATASIZE STOP 0x2E STOP CODECOPY STOP CALLDATACOPY STOP 0x2D STOP ORIGIN STOP 0x2E STOP CALLDATASIZE STOP CODECOPY STOP KECCAK256 STOP ORIGIN STOP 0x2E STOP ADDRESS STOP CALLVALUE STOP 0x2D STOP CALLER STOP 0x2E STOP CALLVALUE STOP CALLDATASIZE STOP KECCAK256 STOP ORIGIN STOP 0x2E STOP CODECOPY STOP PUSH13 0x2D0033002E00320031002000 BALANCE STOP BALANCE STOP 0x2E STOP CALLER STOP CALLDATALOAD STOP PUSH4 0x2D0032 STOP 0x2E STOP CALLVALUE STOP KECCAK256 STOP CODESIZE STOP 0x2E STOP CALLDATALOAD STOP BALANCE STOP 0x2D STOP CALLVALUE STOP 0x2E STOP CALLDATACOPY STOP CODECOPY STOP KECCAK256 STOP BALANCE STOP CALLDATACOPY STOP 0x2E STOP ADDRESS STOP CALLER STOP 0x2D STOP CALLDATACOPY STOP 0x2E STOP BALANCE STOP CALLDATASIZE STOP KECCAK256 STOP ORIGIN STOP CALLDATALOAD STOP 0x2E STOP CALLDATALOAD STOP CALLDATALOAD STOP GAS STOP PUSH14 0x2D00350033002E00340035002D STOP ORIGIN STOP CODECOPY STOP 0x2E STOP CALLDATALOAD STOP CODECOPY STOP PUSH4 0x2D002E STOP BALANCE STOP CALLVALUE STOP 0x2D STOP BALANCE STOP 0x2E STOP CALLER STOP ORIGIN STOP 0x2D STOP 0x2E STOP BALANCE STOP CODECOPY STOP 0x2D STOP ORIGIN STOP 0x2E STOP CODESIZE STOP CALLDATALOAD STOP 0x2D STOP 0x2E STOP ADDRESS STOP CALLVALUE STOP 0x2D STOP CALLVALUE STOP 0x2E STOP CALLDATALOAD STOP CALLER STOP 0x2E STOP ADDRESS STOP CALLDATASIZE STOP 0x2D STOP 0x2E STOP CALLDATACOPY STOP BALANCE STOP 0x2E STOP ORIGIN STOP CALLVALUE STOP 0x2D STOP ORIGIN STOP 0x2E STOP ORIGIN STOP CODECOPY STOP 0x2E STOP CALLDATACOPY STOP CODESIZE STOP 0x2D STOP CALLVALUE STOP 0x2E STOP ORIGIN STOP CALLDATALOAD STOP 0x2E STOP BALANCE STOP ORIGIN STOP 0x2D STOP 0x2E STOP CALLVALUE STOP CALLVALUE STOP 0x2E STOP CALLER STOP CODESIZE STOP 0x2D STOP BALANCE STOP 0x2E STOP CALLER STOP BALANCE STOP 0x2E STOP CODESIZE STOP 0x2D STOP ORIGIN STOP 0x2E STOP CALLER STOP CODECOPY STOP 0x2E STOP ORIGIN STOP ORIGIN STOP 0x2D STOP 0x2E STOP CALLDATALOAD STOP CALLDATASIZE STOP 0x2E STOP CODESIZE STOP 0x2D STOP BALANCE STOP 0x2E STOP CODECOPY STOP CALLDATACOPY STOP KECCAK256 STOP BALANCE STOP 0x2E STOP CODESIZE STOP ORIGIN STOP 0x2D STOP CALLER STOP 0x2E STOP CALLDATACOPY STOP 0x2E STOP CALLDATACOPY STOP CODECOPY STOP 0x2D STOP BALANCE STOP 0x2E STOP CALLER STOP CALLER STOP KECCAK256 STOP BALANCE STOP 0x2E STOP CALLER STOP CALLER STOP 0x2D STOP ORIGIN STOP 0x2E STOP ORIGIN STOP CALLDATASIZE STOP KECCAK256 STOP ORIGIN STOP 0x2E STOP CALLER STOP CALLDATACOPY STOP 0x2D STOP CALLER STOP 0x2E STOP CALLER STOP 0x2E STOP CALLDATASIZE STOP CALLVALUE STOP 0x2D STOP 0x2E STOP CALLDATASIZE STOP CALLVALUE STOP KECCAK256 STOP BALANCE STOP 0x2E STOP BALANCE STOP CODECOPY STOP 0x2D STOP BALANCE STOP 0x2E STOP ADDRESS STOP CALLDATALOAD STOP KECCAK256 STOP BALANCE STOP 0x2E STOP CALLVALUE STOP 0x2D STOP BALANCE STOP 0x2E STOP BALANCE STOP CODECOPY STOP 0x2E STOP CALLDATASIZE STOP CALLVALUE STOP 0x2D STOP 0x2E STOP CALLVALUE STOP CALLDATASIZE STOP KECCAK256 STOP BALANCE STOP 0x2E STOP CALLDATASIZE STOP BALANCE STOP 0x2D STOP BALANCE STOP 0x2E STOP ADDRESS STOP CALLDATASIZE STOP KECCAK256 STOP ORIGIN STOP 0x2E STOP CODESIZE STOP CODECOPY STOP 0x2D STOP BALANCE STOP 0x2E STOP CALLDATALOAD STOP 0x2E STOP CALLDATASIZE STOP CODESIZE STOP 0x2D STOP 0x2E STOP ORIGIN STOP CALLVALUE STOP KECCAK256 STOP BALANCE STOP 0x2E STOP CALLDATASIZE STOP CALLVALUE STOP 0x2D STOP 0x2E STOP CALLDATALOAD STOP CALLDATASIZE STOP KECCAK256 STOP ORIGIN STOP 0x2E STOP CODECOPY STOP CALLDATALOAD STOP 0x2D STOP 0x2E STOP CALLDATALOAD STOP CODECOPY STOP 0x2E STOP CALLDATALOAD STOP BALANCE STOP 0x2D STOP 0x2E STOP ADDRESS STOP BALANCE STOP KECCAK256 STOP ORIGIN STOP 0x2E STOP BALANCE STOP CALLVALUE STOP 0x2D STOP 0x2E STOP ADDRESS STOP CALLER STOP KECCAK256 STOP CALLER STOP 0x2E STOP CALLDATASIZE STOP 0x2E STOP CALLDATACOPY STOP CALLVALUE STOP 0x2E STOP CALLDATACOPY STOP BALANCE STOP 0x2E STOP CALLER STOP CODESIZE STOP KECCAK256 STOP BALANCE STOP 0x2E STOP ORIGIN STOP CALLDATASIZE STOP 0x2E STOP CODESIZE STOP CALLDATACOPY STOP KECCAK256 STOP BALANCE STOP 0x2E STOP ORIGIN STOP CALLDATASIZE STOP 0x2E STOP CODESIZE STOP CALLDATACOPY STOP 0x2E STOP ORIGIN STOP CODECOPY STOP 0x2E STOP ORIGIN STOP CALLDATASIZE STOP 0x2E STOP CALLDATALOAD STOP ORIGIN STOP 0x2E STOP CALLDATALOAD STOP BALANCE STOP 0x2E STOP CALLDATACOPY STOP CALLER STOP 0x2E STOP CALLDATACOPY STOP CALLDATALOAD STOP 0x2E STOP ORIGIN STOP CALLDATACOPY STOP 0x2E STOP CALLER STOP 0x2E STOP CALLVALUE STOP CALLDATALOAD STOP 0x2E STOP CALLDATALOAD STOP BALANCE STOP 0x2E STOP CALLDATASIZE STOP CALLDATALOAD STOP 0x2E STOP CALLDATACOPY STOP CODECOPY STOP 0x2E STOP CALLVALUE STOP CALLVALUE STOP 0x2E STOP CALLDATASIZE STOP CALLER STOP 0x2E STOP CODESIZE STOP CALLVALUE STOP KECCAK256 STOP BALANCE STOP 0x2E STOP ORIGIN STOP 0x2E STOP CALLDATACOPY STOP CALLER STOP KECCAK256 STOP BALANCE STOP 0x2E STOP CALLDATACOPY STOP CODECOPY STOP 0x2D STOP 0x2E STOP ADDRESS STOP ORIGIN STOP 0x2E STOP BALANCE STOP BALANCE STOP 0x2D STOP 0x2E STOP ADDRESS STOP CODECOPY STOP 0x2E STOP CALLER STOP ORIGIN STOP 0x2D STOP 0x2E STOP ORIGIN STOP CALLVALUE STOP 0x2E STOP CALLDATACOPY STOP CALLDATASIZE STOP 0x2D STOP 0x2E STOP ADDRESS STOP CALLDATACOPY STOP 0x2E STOP ORIGIN STOP BALANCE STOP 0x2D STOP 0x2E STOP ADDRESS STOP CODECOPY STOP 0x2E STOP ORIGIN STOP CALLDATALOAD STOP 0x2D STOP 0x2E STOP BALANCE STOP CODESIZE STOP 0x2E STOP CALLDATALOAD STOP ORIGIN STOP 0x2D STOP 0x2E STOP ORIGIN STOP BALANCE STOP 0x2E STOP CALLDATASIZE STOP 0x2D STOP 0x2E STOP BALANCE STOP CODESIZE STOP 0x2E STOP CALLDATALOAD STOP CALLDATACOPY STOP 0x2D STOP 0x2E STOP ORIGIN STOP CALLDATACOPY STOP 0x2E STOP CODESIZE STOP BALANCE STOP 0x2D STOP 0x2E STOP BALANCE STOP CALLER STOP 0x2E STOP CALLER STOP CALLVALUE STOP 0x2D STOP 0x2E STOP ORIGIN STOP CALLDATACOPY STOP 0x2E STOP CALLDATASIZE STOP 0x2D STOP 0x2E STOP CALLVALUE STOP CALLER STOP 0x2E STOP CODECOPY STOP BALANCE STOP 0x2D STOP 0x2E STOP BALANCE STOP CALLDATALOAD STOP 0x2E STOP ORIGIN STOP CODECOPY STOP 0x2D STOP 0x2E STOP BALANCE STOP CODESIZE STOP 0x2E STOP CALLER STOP ORIGIN STOP 0x2D STOP 0x2E STOP CALLER STOP CALLER STOP 0x2E STOP CALLDATASIZE STOP BALANCE STOP 0x2D STOP 0x2E STOP BALANCE STOP BALANCE STOP 0x2E STOP ORIGIN STOP ORIGIN STOP 0x2D STOP 0x2E STOP BALANCE STOP CALLVALUE STOP 0x2E STOP CALLER STOP 0x2D STOP 0x2E STOP ORIGIN STOP CALLDATACOPY STOP 0x2E STOP CALLDATALOAD STOP CALLDATASIZE STOP 0x2D STOP 0x2E STOP BALANCE STOP 0x2E STOP ORIGIN STOP BALANCE STOP 0x2D STOP 0x2E STOP BALANCE STOP CALLDATASIZE STOP 0x2E STOP CALLER STOP BALANCE STOP 0x2D STOP 0x2E STOP ORIGIN STOP CALLDATACOPY STOP 0x2E STOP CALLDATALOAD STOP CALLER STOP 0x2D STOP 0x2E STOP ORIGIN STOP CALLDATACOPY STOP 0x2E STOP CALLDATALOAD STOP BALANCE STOP 0x2D STOP 0x2E STOP ORIGIN STOP CALLDATACOPY STOP 0x2E STOP CALLDATALOAD STOP CALLER STOP 0x2D STOP 0x2E STOP CALLDATALOAD STOP 0x2E STOP CODECOPY STOP CODECOPY STOP 0x2D STOP 0x2E STOP ORIGIN STOP CALLER STOP 0x2E STOP CALLVALUE STOP CALLVALUE STOP 0x2D STOP 0x2E STOP CALLER STOP CALLVALUE STOP 0x2E STOP CALLDATASIZE STOP CALLDATALOAD STOP 0x2D STOP 0x2E STOP CALLDATALOAD STOP 0x2E STOP CODECOPY STOP 0x2D STOP 0x2E STOP ORIGIN STOP ORIGIN STOP 0x2E STOP CALLER STOP CALLDATASIZE STOP 0x2D STOP 0x2E STOP CALLVALUE STOP BALANCE STOP 0x2E STOP CALLDATASIZE STOP BALANCE STOP 0x2D STOP 0x2E STOP CALLDATALOAD STOP CALLDATALOAD STOP 0x2E STOP CODESIZE STOP 0x2D STOP 0x2E STOP ORIGIN STOP CALLDATASIZE STOP 0x2E STOP CALLER STOP CALLVALUE STOP 0x2D STOP 0x2E STOP CALLVALUE STOP CALLDATASIZE STOP 0x2E STOP CALLDATASIZE STOP 0x2D STOP 0x2E STOP CALLDATACOPY STOP CALLDATACOPY STOP 0x2E STOP CODECOPY STOP BALANCE STOP 0x2D STOP 0x2E STOP ORIGIN STOP BALANCE STOP 0x2E STOP ORIGIN STOP BALANCE STOP 0x2D STOP 0x2E STOP ORIGIN STOP CODECOPY STOP 0x2E STOP ORIGIN STOP CALLDATASIZE STOP 0x2D STOP 0x2E STOP CALLDATALOAD STOP CALLDATACOPY STOP 0x2E STOP CALLDATALOAD STOP CALLDATALOAD STOP 0x2D STOP 0x2E STOP BALANCE STOP BALANCE STOP 0x2E STOP BALANCE STOP ORIGIN STOP 0x2D STOP 0x2E STOP BALANCE STOP CALLDATASIZE STOP 0x2E STOP BALANCE STOP CALLDATACOPY STOP 0x2D STOP 0x2E STOP CALLVALUE STOP CALLER STOP 0x2E STOP CALLVALUE STOP CALLDATACOPY STOP 0x2D STOP 0x2E STOP CALLVALUE STOP CALLDATALOAD STOP 0x2E STOP CALLDATALOAD STOP 0x2D STOP 0x2E STOP CALLDATASIZE STOP CALLDATACOPY STOP 0x2E STOP CALLDATACOPY STOP CALLDATALOAD STOP 0x2D STOP 0x2E STOP CALLDATACOPY STOP CALLDATACOPY STOP 0x2E STOP CODESIZE STOP CALLER STOP 0x2D STOP 0x2E STOP ORIGIN STOP CALLVALUE STOP 0x2E STOP ORIGIN STOP CALLER STOP 0x2D STOP 0x2E STOP CALLVALUE STOP CALLER STOP 0x2E STOP CALLER STOP CALLDATACOPY STOP 0x2D STOP 0x2E STOP CALLDATACOPY STOP BALANCE STOP 0x2E STOP CALLDATALOAD STOP CODECOPY STOP 0x2D STOP 0x2E STOP ORIGIN STOP BALANCE STOP 0x2E STOP BALANCE STOP CALLDATASIZE STOP 0x2D STOP 0x2E STOP CALLDATALOAD STOP BALANCE STOP 0x2E STOP CALLER STOP CODESIZE STOP 0x2D STOP 0x2E STOP CODESIZE STOP CODECOPY STOP 0x2E STOP CALLDATASIZE STOP ORIGIN STOP 0x2D STOP 0x2E STOP CALLER STOP CALLDATALOAD STOP 0x2E STOP ORIGIN STOP ORIGIN STOP 0x2D STOP 0x2E STOP CALLER STOP CALLDATASIZE STOP 0x2E STOP ORIGIN STOP 0x2D STOP 0x2E STOP CODESIZE STOP 0x2E STOP CALLVALUE STOP CALLDATACOPY STOP 0x2D STOP 0x2E STOP CALLER STOP CALLDATACOPY STOP 0x2E STOP ORIGIN STOP CALLER STOP 0x2D STOP 0x2E STOP CALLER STOP CALLDATASIZE STOP 0x2E STOP ORIGIN STOP CALLVALUE STOP 0x2D STOP 0x2E STOP CALLDATACOPY STOP 0x2E STOP CALLVALUE STOP CALLDATALOAD STOP 0x2D STOP 0x2E STOP ORIGIN STOP CODESIZE STOP 0x2E STOP BALANCE STOP CALLDATACOPY STOP 0x2D STOP 0x2E STOP CALLDATALOAD STOP CALLER STOP 0x2E STOP CALLER STOP ORIGIN STOP 0x2D STOP 0x2E STOP CODESIZE STOP CALLDATASIZE STOP 0x2E STOP CALLVALUE STOP CODECOPY STOP 0x2D STOP 0x2E STOP BALANCE STOP CALLVALUE STOP 0x2E STOP ADDRESS STOP CALLDATACOPY STOP 0x2D STOP 0x2E STOP CALLER STOP CALLDATALOAD STOP 0x2E STOP BALANCE STOP CALLDATASIZE STOP 0x2D STOP 0x2E STOP CALLDATACOPY STOP CALLDATACOPY STOP 0x2E STOP CALLER STOP CALLVALUE STOP 0x2D STOP 0x2E STOP CALLER STOP CALLDATASIZE STOP 0x2E STOP BALANCE STOP CALLDATASIZE STOP 0x2D STOP 0x2E STOP CALLDATALOAD STOP 0x2E STOP ORIGIN STOP BALANCE STOP 0x2D STOP BALANCE STOP KECCAK256 STOP 0x2E STOP CALLVALUE STOP ORIGIN STOP 0x2D STOP 0x2E STOP CODESIZE STOP 0x2E STOP CALLER STOP CALLVALUE STOP 0x2D STOP 0x2E STOP CALLDATACOPY STOP CALLDATALOAD STOP 0x2E STOP CALLER STOP CALLER STOP 0x2D STOP 0x2E STOP CODECOPY STOP CALLVALUE STOP 0x2E STOP CALLVALUE STOP 0x2D STOP 0x2E STOP CALLER STOP CODECOPY STOP 0x2E STOP BALANCE STOP CALLDATALOAD STOP 0x2D STOP 0x2E STOP CALLVALUE STOP CALLDATACOPY STOP 0x2E STOP BALANCE STOP CALLDATACOPY STOP 0x2D STOP BALANCE STOP KECCAK256 STOP 0x2E STOP CALLER STOP CODESIZE STOP 0x2D STOP 0x2E STOP CALLER STOP ORIGIN STOP 0x2E STOP BALANCE STOP CALLER STOP 0x2D STOP 0x2E STOP CALLVALUE STOP ORIGIN STOP 0x2E STOP BALANCE STOP CALLDATACOPY STOP 0x2D STOP 0x2E STOP CALLDATASIZE STOP CALLDATASIZE STOP 0x2E STOP ORIGIN STOP CALLDATACOPY STOP 0x2D STOP 0x2E STOP ORIGIN STOP CALLDATALOAD STOP 0x2E STOP BALANCE STOP 0x2D STOP 0x2E STOP CALLDATASIZE STOP ORIGIN STOP 0x2E STOP ORIGIN STOP CALLDATALOAD STOP 0x2D STOP BALANCE STOP 0x2E STOP CALLER STOP CODECOPY STOP 0x2E STOP CALLDATALOAD STOP ORIGIN STOP 0x2D STOP BALANCE STOP 0x2E STOP BALANCE STOP 0x2E STOP CALLER STOP CODECOPY STOP 0x2D STOP BALANCE STOP 0x2E STOP ADDRESS STOP CALLDATALOAD STOP 0x2E STOP CALLER STOP CALLDATALOAD STOP 0x2D STOP ORIGIN STOP 0x2E STOP ORIGIN STOP 0x2E STOP CALLDATACOPY STOP CALLDATALOAD STOP 0x2D STOP 0x2E STOP CALLER STOP 0x2E STOP BALANCE STOP BALANCE STOP 0x2D STOP 0x2E STOP CALLDATASIZE STOP CALLDATASIZE STOP 0x2E STOP ORIGIN STOP CALLVALUE STOP 0x2D STOP BALANCE STOP 0x2E STOP BALANCE STOP CODESIZE STOP 0x2E STOP CALLVALUE STOP BALANCE STOP 0x2D STOP 0x2E STOP CALLER STOP ORIGIN STOP 0x2E STOP BALANCE STOP 0x2D STOP 0x2E STOP CALLDATALOAD STOP CODESIZE STOP 0x2E STOP BALANCE STOP CODESIZE STOP 0x2D STOP 0x2E STOP CALLDATACOPY STOP CALLDATALOAD STOP 0x2E STOP ORIGIN STOP CALLVALUE STOP GAS STOP PUSH14 0x320035002E00350037002D0031 STOP CODESIZE STOP 0x2E STOP CALLDATASIZE STOP CALLDATACOPY STOP PUSH4 0x31002E STOP BALANCE STOP CALLDATALOAD STOP 0x2D STOP 0x2E STOP ORIGIN STOP KECCAK256 STOP ORIGIN STOP 0x2E STOP ADDRESS STOP CALLDATALOAD STOP 0x2D STOP 0x2E STOP BALANCE STOP CODECOPY STOP KECCAK256 STOP ORIGIN STOP 0x2E STOP CALLER STOP CALLDATACOPY STOP 0x2D STOP 0x2E STOP BALANCE STOP CODESIZE STOP 0x2E STOP CODECOPY STOP CALLDATASIZE STOP 0x2E STOP ADDRESS STOP ORIGIN STOP KECCAK256 STOP BALANCE STOP 0x2E STOP CALLDATASIZE STOP CODESIZE STOP 0x2E STOP BALANCE STOP CALLDATALOAD STOP KECCAK256 STOP BALANCE STOP 0x2E STOP CODESIZE STOP CALLVALUE STOP 0x2E STOP BALANCE STOP CODESIZE STOP 0x2E STOP CALLER STOP BALANCE STOP 0x2E STOP ADDRESS STOP CALLDATASIZE STOP 0x2E STOP CODESIZE STOP CODESIZE STOP 0x2E STOP ORIGIN STOP CALLDATASIZE STOP KECCAK256 STOP BALANCE STOP 0x2E STOP CODESIZE STOP CALLVALUE STOP 0x2E STOP CALLDATALOAD STOP CALLVALUE STOP KECCAK256 STOP ADDRESS STOP KECCAK256 STOP ADDRESS STOP KECCAK256 STOP ORIGIN STOP 0x2E STOP ORIGIN STOP ORIGIN STOP 0x2E STOP CALLDATACOPY STOP CODECOPY STOP KECCAK256 STOP CALLVALUE STOP 0x2E STOP CODECOPY STOP CODESIZE STOP KECCAK256 STOP ORIGIN STOP 0x2E STOP CALLDATACOPY STOP CALLDATALOAD STOP 0x2E STOP ORIGIN STOP CALLVALUE STOP 0x2E STOP BALANCE STOP CALLDATACOPY STOP 0x2E STOP CALLDATACOPY STOP BALANCE STOP 0x2E STOP CALLDATALOAD STOP CALLDATALOAD STOP 0x2E STOP CALLDATACOPY STOP CALLDATASIZE STOP 0x2E STOP CALLDATASIZE STOP PUSH13 0x2E0036002E00350038006300 0x2E STOP ORIGIN STOP CALLDATASIZE STOP 0x2E STOP ORIGIN STOP CALLDATALOAD STOP 0x2E STOP CALLER STOP CODECOPY STOP 0x2E STOP CALLER STOP CODESIZE STOP 0x2E STOP CALLER STOP CALLDATACOPY STOP 0x2E STOP CALLDATALOAD STOP CALLVALUE STOP KECCAK256 STOP ADDRESS STOP KECCAK256 STOP 0x2E STOP ADDRESS STOP CALLER STOP KECCAK256 STOP ADDRESS STOP KECCAK256 STOP 0x2E STOP ADDRESS STOP CALLER STOP 0x2D STOP 0x2E STOP BALANCE STOP BALANCE STOP 0x2E STOP CALLER STOP KECCAK256 STOP ADDRESS STOP KECCAK256 STOP 0x2E STOP ADDRESS STOP BALANCE STOP 0x2D STOP 0x2E STOP ADDRESS STOP CALLDATALOAD STOP 0x2E STOP BALANCE STOP CALLVALUE STOP 0x2D STOP 0x2E STOP ADDRESS STOP CODECOPY STOP 0x2E STOP ORIGIN STOP CALLDATASIZE STOP 0x2D STOP 0x2E STOP ADDRESS STOP CALLDATASIZE STOP 0x2E STOP BALANCE STOP CALLDATACOPY STOP 0x2D STOP 0x2E STOP ADDRESS STOP CALLDATACOPY STOP 0x2E STOP ORIGIN STOP BALANCE STOP 0x2D STOP 0x2E STOP BALANCE STOP CALLVALUE STOP 0x2E STOP CALLVALUE STOP CALLDATALOAD STOP 0x2D STOP 0x2E STOP ADDRESS STOP CODECOPY STOP 0x2E STOP ORIGIN STOP CODESIZE STOP 0x2D STOP 0x2E STOP ADDRESS STOP CODECOPY STOP 0x2E STOP ORIGIN STOP CALLDATASIZE STOP 0x2D STOP 0x2E STOP BALANCE STOP CALLER STOP 0x2E STOP CALLVALUE STOP BALANCE STOP 0x2D STOP 0x2E STOP ADDRESS STOP CALLVALUE STOP 0x2E STOP BALANCE STOP ORIGIN STOP 0x2D STOP 0x2E STOP ADDRESS STOP CALLDATASIZE STOP 0x2E STOP ORIGIN STOP ORIGIN STOP 0x2D STOP 0x2E STOP BALANCE STOP BALANCE STOP 0x2E STOP CALLVALUE STOP ORIGIN STOP 0x2D STOP 0x2E STOP ADDRESS STOP CALLDATASIZE STOP 0x2E STOP ORIGIN STOP CALLDATASIZE STOP 0x2D STOP 0x2E STOP BALANCE STOP 0x2E STOP CALLER STOP CODECOPY STOP 0x2D STOP 0x2E STOP BALANCE STOP 0x2E STOP CALLVALUE STOP BALANCE STOP KECCAK256 STOP ADDRESS STOP KECCAK256 STOP 0x2E STOP ADDRESS STOP CALLER STOP KECCAK256 STOP ADDRESS STOP KECCAK256 STOP 0x2E STOP ADDRESS STOP CALLDATALOAD STOP 0x2D STOP 0x2E STOP ADDRESS STOP BALANCE STOP 0x2E STOP ADDRESS STOP CALLDATALOAD STOP 0x2D STOP 0x2E STOP ADDRESS STOP CALLDATASIZE STOP 0x2E STOP ADDRESS STOP CALLER STOP 0x2D STOP 0x2E STOP CALLER STOP CALLDATALOAD STOP 0x2D STOP 0x2E STOP CALLDATALOAD STOP ORIGIN STOP 0x2D STOP 0x2E STOP CALLDATALOAD STOP CALLDATACOPY STOP 0x2D STOP 0x2E STOP CODESIZE STOP CALLDATACOPY STOP 0x2D STOP 0x2E STOP CALLER STOP CALLVALUE STOP 0x2D STOP 0x2E STOP CALLDATALOAD STOP CALLDATALOAD STOP 0x2D STOP 0x2E STOP CALLDATASIZE STOP CODESIZE STOP 0x2D STOP 0x2E STOP CODESIZE STOP CODECOPY STOP 0x2D STOP BALANCE STOP 0x2E STOP ADDRESS STOP CODESIZE STOP 0x2D STOP BALANCE STOP 0x2E STOP CALLER STOP 0x2D STOP 0x2E STOP CALLDATALOAD STOP CALLER STOP 0x2D STOP 0x2E STOP CALLDATALOAD STOP CALLVALUE STOP 0x2D STOP 0x2E STOP CODECOPY STOP CODESIZE STOP 0x2D STOP 0x2E STOP CODESIZE STOP CALLDATASIZE STOP 0x2D STOP BALANCE STOP 0x2E STOP CALLDATASIZE STOP 0x2D STOP BALANCE STOP 0x2E STOP CALLER STOP 0x2D STOP 0x2E STOP CALLVALUE STOP CODESIZE STOP 0x2D STOP 0x2E STOP CALLER STOP CALLVALUE STOP 0x2D STOP BALANCE STOP 0x2E STOP CALLER STOP ORIGIN STOP 0x2D STOP 0x2E STOP CODECOPY STOP CALLER STOP 0x2D STOP ORIGIN STOP 0x2E STOP CALLDATALOAD STOP CALLER STOP 0x2D STOP BALANCE STOP 0x2E STOP CALLDATALOAD STOP BALANCE STOP 0x2D STOP 0x2E STOP CALLDATALOAD STOP CALLDATALOAD STOP 0x2D STOP 0x2E STOP ORIGIN STOP CALLDATASIZE STOP 0x2D STOP BALANCE STOP 0x2E STOP ORIGIN STOP BALANCE STOP 0x2D STOP 0x2E STOP CALLDATALOAD STOP CODESIZE STOP 0x2D STOP ORIGIN STOP 0x2E STOP BALANCE STOP 0x2D STOP 0x2E STOP CODESIZE STOP CALLER STOP 0x2D STOP 0x2E STOP ORIGIN STOP CALLER STOP 0x2D STOP 0x2E STOP ADDRESS STOP CALLDATASIZE STOP 0x2D STOP ORIGIN STOP 0x2E STOP CODECOPY STOP CALLVALUE STOP 0x2D STOP 0x2E STOP CALLDATACOPY STOP CODECOPY STOP 0x2D STOP CALLDATALOAD STOP 0x2E STOP CODECOPY STOP BALANCE STOP 0x2E STOP ADDRESS STOP CALLVALUE STOP 0x2D STOP 0x2E STOP CALLER STOP CALLDATALOAD STOP 0x2E STOP BALANCE STOP 0x2D STOP 0x2E STOP CODECOPY STOP 0x2E STOP ORIGIN STOP CALLDATASIZE STOP 0x2D STOP BALANCE STOP 0x2E STOP CALLDATALOAD STOP CALLDATACOPY STOP 0x2E STOP CALLDATALOAD STOP CODESIZE STOP 0x2D STOP 0x2E STOP CALLER STOP CALLER STOP 0x2E STOP BALANCE STOP CALLDATASIZE STOP 0x2D STOP BALANCE STOP 0x2E STOP ADDRESS STOP CALLER STOP 0x2E STOP CALLVALUE STOP CODECOPY STOP 0x2D STOP BALANCE STOP 0x2E STOP CODESIZE STOP BALANCE STOP KECCAK256 STOP BALANCE STOP 0x2E STOP ADDRESS STOP CODECOPY STOP 0x2D STOP 0x2E STOP CALLDATASIZE STOP ORIGIN STOP 0x2E STOP CALLVALUE STOP CODESIZE STOP 0x2D STOP BALANCE STOP 0x2E STOP BALANCE STOP ORIGIN STOP 0x2E STOP CODECOPY STOP CODESIZE STOP 0x2D STOP BALANCE STOP 0x2E STOP BALANCE STOP CODECOPY STOP 0x2E STOP CODECOPY STOP BALANCE STOP 0x2D STOP 0x2E STOP ADDRESS STOP ORIGIN STOP 0x2D STOP 0x2E STOP ADDRESS STOP ORIGIN STOP 0x2E STOP ADDRESS STOP ORIGIN STOP 0x2D STOP 0x2E STOP BALANCE STOP CALLVALUE STOP 0x2E STOP BALANCE STOP 0x2D STOP 0x2E STOP CALLER STOP CALLDATACOPY STOP 0x2E STOP ADDRESS STOP CALLDATASIZE STOP 0x2D STOP 0x2E STOP BALANCE STOP CALLDATASIZE STOP 0x2E STOP BALANCE STOP BALANCE STOP 0x2D STOP 0x2E STOP ORIGIN STOP CODECOPY STOP 0x2E STOP BALANCE STOP ORIGIN STOP 0x2D STOP 0x2E STOP CALLER STOP ORIGIN STOP 0x2E STOP ORIGIN STOP CALLDATASIZE STOP 0x2D STOP 0x2E STOP CALLDATALOAD STOP CODESIZE STOP KECCAK256 STOP BALANCE STOP 0x2E STOP CALLDATACOPY STOP CALLDATASIZE STOP 0x2D STOP BALANCE STOP 0x2E STOP CALLDATASIZE STOP ORIGIN STOP KECCAK256 STOP BALANCE STOP 0x2E STOP CALLDATACOPY STOP CALLDATASIZE STOP 0x2D STOP BALANCE STOP 0x2E STOP CALLDATASIZE STOP ORIGIN STOP 0x2E STOP CALLDATALOAD STOP CODECOPY STOP 0x2D STOP 0x2E STOP CALLVALUE STOP BALANCE STOP 0x2E STOP CODESIZE STOP CODECOPY STOP 0x2D STOP 0x2E STOP CALLDATASIZE STOP BALANCE STOP KECCAK256 STOP BALANCE STOP 0x2E STOP BALANCE STOP CALLER STOP 0x2D STOP 0x2E STOP CALLDATACOPY STOP CALLDATALOAD STOP 0x2E STOP ORIGIN STOP CALLDATASIZE STOP 0x2D STOP 0x2E STOP BALANCE STOP CALLDATALOAD STOP 0x2E STOP CALLDATACOPY STOP CODECOPY STOP 0x2D STOP 0x2E STOP CALLVALUE STOP ORIGIN STOP KECCAK256 STOP BALANCE STOP 0x2E STOP CALLDATALOAD STOP BALANCE STOP 0x2D STOP 0x2E STOP CALLDATASIZE STOP CALLDATACOPY STOP 0x2E STOP CALLDATASIZE STOP CODECOPY STOP 0x2D STOP 0x2E STOP ORIGIN STOP CALLVALUE STOP KECCAK256 STOP BALANCE STOP 0x2E STOP ORIGIN STOP CALLVALUE STOP 0x2D STOP 0x2E STOP CALLER STOP CALLER STOP KECCAK256 STOP BALANCE STOP 0x2E STOP CALLDATASIZE STOP CALLDATALOAD STOP 0x2D STOP 0x2E STOP CALLVALUE STOP BALANCE STOP GAS STOP PUSH14 0x360032002E0037002000320033 STOP 0x2E STOP CALLDATASIZE STOP CALLDATACOPY STOP PUSH4 0x2D002E STOP ORIGIN STOP BALANCE STOP 0x2E STOP CALLDATACOPY STOP CALLDATALOAD STOP 0x2D STOP 0x2E STOP CALLDATALOAD STOP ORIGIN STOP KECCAK256 STOP BALANCE STOP 0x2E STOP CALLDATASIZE STOP BALANCE STOP 0x2D STOP 0x2E STOP CODECOPY STOP CALLDATACOPY STOP KECCAK256 STOP ORIGIN STOP 0x2E STOP CALLDATALOAD STOP CALLER STOP 0x2D STOP 0x2E STOP CALLDATASIZE STOP CODECOPY STOP KECCAK256 STOP BALANCE STOP 0x2E STOP CALLVALUE STOP BALANCE STOP 0x2D STOP BALANCE STOP 0x2E STOP CALLDATALOAD STOP KECCAK256 STOP ORIGIN STOP 0x2E STOP CALLDATALOAD STOP ORIGIN STOP 0x2D STOP ORIGIN STOP 0x2E STOP ORIGIN STOP KECCAK256 STOP CALLER STOP 0x2E STOP CALLER STOP CALLVALUE STOP KECCAK256 STOP CALLER STOP 0x2E STOP CALLER STOP CALLDATALOAD STOP 0x2D STOP 0x2E STOP ORIGIN STOP CODECOPY STOP KECCAK256 STOP CALLDATASIZE STOP 0x2E STOP BALANCE STOP CODESIZE STOP 0x2D STOP 0x2E STOP CALLVALUE STOP CALLDATASIZE STOP KECCAK256 STOP CODESIZE STOP 0x2E STOP CALLER STOP ORIGIN STOP 0x2D STOP 0x2E STOP CALLDATALOAD STOP CALLDATASIZE STOP KECCAK256 STOP ORIGIN STOP 0x2E STOP CALLDATASIZE STOP CALLVALUE STOP 0x2D STOP 0x2E STOP BALANCE STOP CALLER STOP KECCAK256 STOP CALLVALUE STOP 0x2E STOP CALLDATASIZE STOP CALLER STOP 0x2D STOP 0x2E STOP BALANCE STOP CALLDATACOPY STOP KECCAK256 STOP CALLDATASIZE STOP 0x2E STOP CALLDATASIZE STOP CODESIZE STOP 0x2D STOP 0x2E STOP ORIGIN STOP ORIGIN STOP KECCAK256 STOP CALLER STOP 0x2E STOP ADDRESS STOP CODESIZE STOP 0x2D STOP 0x2E STOP ADDRESS STOP CALLDATACOPY STOP KECCAK256 STOP CALLDATALOAD STOP 0x2E STOP BALANCE STOP BALANCE STOP 0x2D STOP 0x2E STOP BALANCE STOP ORIGIN STOP KECCAK256 STOP CALLDATACOPY STOP 0x2E STOP CODESIZE STOP CODECOPY STOP 0x2D STOP 0x2E STOP ADDRESS STOP CODECOPY STOP KECCAK256 STOP ORIGIN STOP 0x2E STOP CODECOPY STOP CODESIZE STOP 0x2E STOP ADDRESS STOP CALLER STOP KECCAK256 STOP CALLDATALOAD STOP 0x2E STOP ORIGIN STOP CALLER STOP 0x2E STOP BALANCE STOP CALLER STOP KECCAK256 STOP CALLDATACOPY STOP 0x2E STOP BALANCE STOP CALLVALUE STOP 0x2E STOP ORIGIN STOP ORIGIN STOP KECCAK256 STOP ORIGIN STOP 0x2E STOP CALLER STOP CALLDATACOPY STOP 0x2E STOP BALANCE STOP BALANCE STOP KECCAK256 STOP ORIGIN STOP 0x2E STOP CODECOPY STOP CODECOPY STOP 0x2E STOP BALANCE STOP CODESIZE STOP KECCAK256 STOP CALLVALUE STOP 0x2E STOP CALLVALUE STOP CALLDATALOAD STOP 0x2E STOP ORIGIN STOP CALLDATACOPY STOP KECCAK256 STOP BALANCE STOP 0x2E STOP BALANCE STOP BALANCE STOP 0x2E STOP ADDRESS STOP CALLDATACOPY STOP KECCAK256 STOP BALANCE STOP 0x2E STOP CALLDATASIZE STOP CALLDATACOPY STOP 0x2E STOP BALANCE STOP BALANCE STOP KECCAK256 STOP ORIGIN STOP 0x2E STOP ORIGIN STOP ORIGIN STOP 0x2E STOP BALANCE STOP ORIGIN STOP KECCAK256 STOP ORIGIN STOP 0x2E STOP CALLDATALOAD STOP CALLER STOP 0x2E STOP ADDRESS STOP CALLDATASIZE STOP KECCAK256 STOP ORIGIN STOP 0x2E STOP CALLDATACOPY STOP CODECOPY STOP 0x2D STOP 0x2E STOP ORIGIN STOP CALLDATALOAD STOP KECCAK256 STOP ORIGIN STOP 0x2E STOP CODESIZE STOP CALLDATASIZE STOP 0x2D STOP 0x2E STOP CALLVALUE STOP ORIGIN STOP 0x2E STOP ADDRESS STOP CALLVALUE STOP 0x2D STOP 0x2E STOP ADDRESS STOP CODECOPY STOP 0x2D STOP 0x2E STOP ADDRESS STOP CALLER STOP 0x2D STOP 0x2E STOP CALLER STOP CODECOPY STOP 0x2D STOP 0x2E STOP BALANCE STOP CALLDATACOPY STOP 0x2D STOP 0x2E STOP CODECOPY STOP CALLDATACOPY STOP 0x2D STOP 0x2E STOP ADDRESS STOP CALLDATACOPY STOP 0x2D STOP 0x2E STOP ORIGIN STOP CODECOPY STOP 0x2D STOP 0x2E STOP BALANCE STOP CALLVALUE STOP 0x2D STOP 0x2E STOP CALLDATALOAD STOP CODECOPY STOP 0x2D STOP 0x2E STOP ORIGIN STOP CALLDATACOPY STOP 0x2D STOP 0x2E STOP CODECOPY STOP CODESIZE STOP 0x2D STOP 0x2E STOP ADDRESS STOP CALLDATACOPY STOP 0x2D STOP 0x2E STOP ORIGIN STOP 0x2D STOP 0x2E STOP BALANCE STOP CALLDATACOPY STOP 0x2D STOP 0x2E STOP CALLDATALOAD STOP 0x2D STOP 0x2E STOP CALLER STOP CALLDATALOAD STOP 0x2D STOP 0x2E STOP CODESIZE STOP CODESIZE STOP 0x2D STOP 0x2E STOP BALANCE STOP CALLDATALOAD STOP 0x2D STOP 0x2E STOP CALLER STOP ORIGIN STOP 0x2D STOP 0x2E STOP CALLER STOP 0x2D STOP 0x2E STOP CALLDATASIZE STOP CALLER STOP 0x2D STOP 0x2E STOP CALLDATALOAD STOP CALLDATACOPY STOP 0x2D STOP 0x2E STOP CODECOPY STOP CALLDATACOPY STOP 0x2D STOP 0x2E STOP BALANCE STOP CODECOPY STOP 0x2D STOP 0x2E STOP ORIGIN STOP CALLVALUE STOP 0x2D STOP 0x2E STOP CALLDATALOAD STOP ORIGIN STOP 0x2D STOP 0x2E STOP CALLDATASIZE STOP CALLDATALOAD STOP 0x2D STOP BALANCE STOP 0x2E STOP ADDRESS STOP CODECOPY STOP 0x2D STOP 0x2E STOP CODECOPY STOP ORIGIN STOP 0x2D STOP 0x2E STOP ADDRESS STOP CODECOPY STOP 0x2D STOP 0x2E STOP ADDRESS STOP CALLVALUE STOP 0x2D STOP 0x2E STOP CALLER STOP CALLDATACOPY STOP 0x2D STOP 0x2E STOP BALANCE STOP CALLDATACOPY STOP 0x2D STOP 0x2E STOP CALLDATACOPY STOP CALLDATALOAD STOP 0x2D STOP 0x2E STOP ORIGIN STOP CALLVALUE STOP 0x2D STOP 0x2E STOP ORIGIN STOP CODECOPY STOP 0x2D STOP 0x2E STOP ADDRESS STOP CALLDATALOAD STOP 0x2D STOP 0x2E STOP CALLDATALOAD STOP ORIGIN STOP 0x2D STOP 0x2E STOP ADDRESS STOP CALLVALUE STOP 0x2D STOP 0x2E STOP CALLDATASIZE STOP 0x2D STOP 0x2E STOP ADDRESS STOP CALLVALUE STOP 0x2D STOP 0x2E STOP CALLER STOP ORIGIN STOP 0x2D STOP 0x2E STOP ADDRESS STOP ORIGIN STOP 0x2D STOP 0x2E STOP CALLDATACOPY STOP CALLDATACOPY STOP 0x2D STOP 0x2E STOP ADDRESS STOP CALLVALUE STOP 0x2D STOP BALANCE STOP 0x2E STOP CODECOPY STOP CALLDATACOPY STOP 0x2D STOP 0x2E STOP ADDRESS STOP CODESIZE STOP 0x2D STOP CALLER STOP 0x2E STOP CODESIZE STOP CODESIZE STOP 0x2D STOP 0x2E STOP BALANCE STOP CALLVALUE STOP 0x2D STOP CALLDATALOAD STOP 0x2E STOP CODESIZE STOP BALANCE STOP 0x2D STOP 0x2E STOP ORIGIN STOP 0x2D STOP CALLDATACOPY STOP 0x2E STOP CODECOPY STOP CALLDATASIZE STOP 0x2D STOP 0x2E STOP ORIGIN STOP CALLVALUE STOP 0x2D STOP BALANCE STOP 0x2E STOP CODECOPY STOP CALLDATASIZE STOP 0x2D STOP 0x2E STOP ADDRESS STOP CALLER STOP 0x2D STOP CALLVALUE STOP 0x2E STOP ORIGIN STOP CODESIZE STOP 0x2D STOP 0x2E STOP ADDRESS STOP CALLDATASIZE STOP 0x2D STOP CODECOPY STOP 0x2E STOP CALLDATACOPY STOP CALLER STOP 0x2D STOP 0x2E STOP ADDRESS STOP CALLER STOP 0x2D STOP CALLER STOP 0x2E STOP CALLER STOP CALLER STOP 0x2E STOP ADDRESS STOP ORIGIN STOP 0x2D STOP CALLDATACOPY STOP 0x2E STOP CALLDATACOPY STOP ORIGIN STOP 0x2E STOP ADDRESS STOP CALLDATASIZE STOP 0x2D STOP BALANCE STOP ORIGIN STOP 0x2E STOP CODECOPY STOP CALLDATALOAD STOP 0x2E STOP BALANCE STOP CALLVALUE STOP GAS STOP SHR STOP 0xC KECCAK256 PUSH7 0x69006C006C00 GASPRICE STOP 0x23 STOP CODECOPY STOP PUSH3 0x3000 ADDRESS STOP PUSH7 0x660082009900 0xD9 STOP AND STOP LOG4 ADD OR STOP LOG4 ADD 0xC2 STOP MUL STOP 0xBD KECCAK256 0x4D STOP BALANCE STOP CODESIZE STOP CALLDATACOPY STOP 0x2E STOP CALLDATALOAD STOP ORIGIN STOP KECCAK256 STOP ORIGIN STOP ADDRESS STOP CODECOPY STOP 0x2E STOP CALLER STOP CODESIZE STOP PUSH4 0x31002E STOP CODECOPY STOP CALLER STOP 0x2D STOP 0x2E STOP CALLDATACOPY STOP BALANCE STOP KECCAK256 STOP BALANCE STOP CALLDATACOPY STOP 0x2E STOP CALLDATACOPY STOP ORIGIN STOP 0x2D STOP CALLDATASIZE STOP 0x2E STOP CALLDATALOAD STOP CODECOPY STOP KECCAK256 STOP ORIGIN STOP CALLDATASIZE STOP 0x2E STOP CODECOPY STOP ORIGIN STOP 0x2D STOP BALANCE STOP CALLER STOP 0x2E STOP ADDRESS STOP BALANCE STOP 0x2E STOP CALLDATACOPY STOP CALLDATALOAD STOP 0x2D STOP 0x2E STOP CALLDATALOAD STOP ORIGIN STOP KECCAK256 STOP CALLER STOP 0x2E STOP CODECOPY STOP CALLVALUE STOP 0x2D STOP ORIGIN STOP 0x2E STOP CALLDATACOPY STOP CODECOPY STOP KECCAK256 STOP CALLDATACOPY STOP 0x2E STOP ADDRESS STOP CODECOPY STOP 0x2D STOP CALLDATACOPY STOP 0x2E STOP ADDRESS STOP ORIGIN STOP KECCAK256 STOP CALLER STOP 0x2E STOP BALANCE STOP BALANCE STOP 0x2D STOP CALLVALUE STOP 0x2E STOP BALANCE STOP CALLDATACOPY STOP KECCAK256 STOP CALLER STOP 0x2E STOP CALLDATASIZE STOP CODECOPY STOP 0x2D STOP CALLDATASIZE STOP 0x2E STOP CODECOPY STOP BALANCE STOP KECCAK256 STOP CALLER STOP 0x2E STOP CODESIZE STOP CODESIZE STOP 0x2D STOP CODESIZE STOP 0x2E STOP ORIGIN STOP BALANCE STOP 0x2E STOP BALANCE STOP CALLER STOP 0x2D STOP 0x2E STOP CODECOPY STOP 0x2E STOP CALLVALUE STOP CALLDATASIZE STOP 0x2D STOP CALLER STOP 0x2E STOP ORIGIN STOP CALLDATALOAD STOP 0x2D STOP 0x2E STOP ORIGIN STOP CODESIZE STOP 0x2D STOP CALLDATALOAD STOP 0x2E STOP CODECOPY STOP CALLDATALOAD STOP 0x2D STOP 0x2E STOP BALANCE STOP CODECOPY STOP 0x2D STOP 0x2E STOP CALLDATASIZE STOP CODECOPY STOP 0x2D STOP 0x2E STOP CALLDATACOPY STOP ORIGIN STOP 0x2D STOP ORIGIN STOP 0x2E STOP CALLVALUE STOP 0x2D STOP ORIGIN STOP 0x2E STOP CALLDATALOAD STOP CALLDATALOAD STOP 0x2D STOP CALLVALUE STOP 0x2E STOP CALLDATACOPY STOP CALLDATASIZE STOP 0x2D STOP BALANCE STOP 0x2E STOP ORIGIN STOP 0x2D STOP BALANCE STOP 0x2E STOP CALLDATALOAD STOP CALLVALUE STOP 0x2D STOP CALLVALUE STOP 0x2E STOP CALLER STOP ORIGIN STOP 0x2D STOP CALLDATALOAD STOP 0x2E STOP CALLDATALOAD STOP CALLDATALOAD STOP 0x2D STOP CODECOPY STOP 0x2E STOP CALLDATALOAD STOP CALLDATALOAD STOP 0x2D STOP CALLDATASIZE STOP 0x2E STOP CALLDATASIZE STOP CALLDATASIZE STOP 0x2D STOP CALLER STOP 0x2E STOP CALLDATACOPY STOP CALLDATACOPY STOP 0x2D STOP 0x2E STOP CODESIZE STOP 0x2D STOP CALLDATASIZE STOP 0x2E STOP CALLDATACOPY STOP CALLVALUE STOP 0x2E STOP CALLER STOP ORIGIN STOP 0x2D STOP CODESIZE STOP 0x2E STOP ADDRESS STOP CALLVALUE STOP 0x2E STOP CODESIZE STOP CALLER STOP 0x2D STOP ORIGIN STOP 0x2E STOP ORIGIN STOP CALLER STOP 0x2E STOP CODESIZE STOP CODESIZE STOP 0x2D STOP CALLER STOP 0x2E STOP CODECOPY STOP ORIGIN STOP KECCAK256 STOP ORIGIN STOP 0x2E STOP BALANCE STOP CALLER STOP 0x2D STOP CALLDATALOAD STOP 0x2E STOP ADDRESS STOP ORIGIN STOP KECCAK256 STOP CALLER STOP 0x2E STOP ADDRESS STOP CODECOPY STOP 0x2D STOP 0x2E STOP CALLDATACOPY STOP CALLDATASIZE STOP KECCAK256 STOP ORIGIN STOP 0x2E STOP CALLVALUE STOP CALLDATASIZE STOP 0x2D STOP BALANCE STOP 0x2E STOP CALLDATALOAD STOP ORIGIN STOP KECCAK256 STOP CALLVALUE STOP 0x2E STOP CODECOPY STOP ORIGIN STOP 0x2D STOP ORIGIN STOP 0x2E STOP ORIGIN STOP CALLDATACOPY STOP KECCAK256 STOP CALLDATACOPY STOP 0x2E STOP CALLER STOP CODECOPY STOP KECCAK256 STOP ADDRESS STOP KECCAK256 STOP ADDRESS STOP 0x2D STOP BALANCE STOP 0x2E STOP BALANCE STOP CALLER STOP KECCAK256 STOP CALLER STOP 0x2E STOP CALLDATACOPY STOP ORIGIN STOP 0x2D STOP ORIGIN STOP 0x2E STOP ORIGIN STOP CALLDATASIZE STOP KECCAK256 STOP CALLDATACOPY STOP 0x2E STOP CALLVALUE STOP CALLER STOP 0x2D STOP BALANCE STOP 0x2E STOP CALLDATALOAD STOP CALLVALUE STOP KECCAK256 STOP CALLDATALOAD STOP 0x2E STOP BALANCE STOP ORIGIN STOP 0x2D STOP CALLVALUE STOP 0x2E STOP CALLER STOP CALLDATALOAD STOP KECCAK256 STOP BALANCE STOP CALLVALUE STOP 0x2E STOP CALLDATALOAD STOP CODESIZE STOP 0x2D STOP CALLDATACOPY STOP 0x2E STOP CODECOPY STOP ORIGIN STOP KECCAK256 STOP ORIGIN STOP CALLDATASIZE STOP 0x2E STOP CODESIZE STOP CALLVALUE STOP GAS STOP PUSH14 0x30002000300063002D0032002E STOP CALLDATACOPY STOP ORIGIN STOP 0x2D STOP ORIGIN STOP 0x2E STOP CALLDATASIZE STOP CODESIZE STOP 0x2D STOP BALANCE STOP CALLER STOP 0x2E STOP CALLDATASIZE STOP CODECOPY STOP 0x2D STOP BALANCE STOP CALLER STOP 0x2E STOP CODECOPY STOP ORIGIN STOP 0x2D STOP BALANCE STOP CALLDATASIZE STOP 0x2E STOP CALLDATASIZE STOP CODESIZE STOP 0x2D STOP ORIGIN STOP CODESIZE STOP 0x2E STOP CODESIZE STOP CALLER STOP 0x2D STOP 0x2E STOP CALLDATALOAD STOP CODESIZE STOP 0x2D STOP ORIGIN STOP 0x2E STOP CODECOPY STOP 0x2D STOP BALANCE STOP 0x2E STOP CALLDATACOPY STOP CALLVALUE STOP 0x2D STOP CODECOPY STOP KECCAK256 STOP 0x2E STOP BALANCE STOP CALLDATASIZE STOP 0x2D STOP BALANCE STOP CALLDATALOAD STOP 0x2E STOP CALLVALUE STOP CALLER STOP 0x2E STOP CALLVALUE STOP CODECOPY STOP 0x2D STOP BALANCE STOP 0x2E STOP CALLDATASIZE STOP CALLDATASIZE STOP KECCAK256 STOP BALANCE STOP 0x2E STOP CALLER STOP CODECOPY STOP 0x2D STOP CALLVALUE STOP 0x2E STOP CALLDATALOAD STOP CODESIZE STOP KECCAK256 STOP CALLER STOP 0x2E STOP CALLDATACOPY STOP BALANCE STOP 0x2D STOP CALLDATASIZE STOP 0x2E STOP CODESIZE STOP BALANCE STOP KECCAK256 STOP BALANCE STOP 0x2E STOP CODECOPY STOP BALANCE STOP 0x2D STOP BALANCE STOP 0x2E STOP CODESIZE STOP CALLER STOP KECCAK256 STOP CALLER STOP 0x2E STOP CODESIZE STOP CALLVALUE STOP 0x2D STOP ORIGIN STOP 0x2E STOP ORIGIN STOP CALLDATACOPY STOP KECCAK256 STOP CALLDATALOAD STOP 0x2E STOP CALLVALUE STOP CODECOPY STOP 0x2D STOP ORIGIN STOP 0x2E STOP CALLDATASIZE STOP ORIGIN STOP KECCAK256 STOP BALANCE STOP 0x2E STOP CALLDATACOPY STOP CALLVALUE STOP 0x2D STOP 0x2E STOP CALLER STOP CALLDATACOPY STOP KECCAK256 STOP CALLDATACOPY STOP 0x2E STOP ADDRESS STOP BALANCE STOP 0x2D STOP BALANCE STOP 0x2E STOP CALLER STOP CODECOPY STOP KECCAK256 STOP BALANCE STOP ORIGIN STOP 0x2E STOP CALLVALUE STOP CODESIZE STOP KECCAK256 STOP ORIGIN STOP 0x2E STOP CALLVALUE STOP CODESIZE STOP KECCAK256 STOP CALLVALUE STOP 0x2E STOP CALLER STOP CALLDATASIZE STOP KECCAK256 STOP CALLER STOP 0x2E STOP ADDRESS STOP CODECOPY STOP KECCAK256 STOP CALLDATASIZE STOP 0x2E STOP CALLVALUE STOP CODESIZE STOP KECCAK256 STOP CALLDATACOPY STOP 0x2E STOP CALLDATASIZE STOP BALANCE STOP KECCAK256 STOP CALLDATACOPY STOP 0x2E STOP ORIGIN STOP CALLDATACOPY STOP KECCAK256 STOP CODECOPY STOP 0x2E STOP CALLDATALOAD STOP CALLER STOP 0x2D STOP BALANCE STOP 0x2E STOP CALLDATALOAD STOP ORIGIN STOP KECCAK256 STOP CALLVALUE STOP 0x2E STOP CODECOPY STOP BALANCE STOP 0x2D STOP CALLER STOP 0x2E STOP ADDRESS STOP ORIGIN STOP KECCAK256 STOP CODECOPY STOP 0x2E STOP CODESIZE STOP CALLDATALOAD STOP 0x2D STOP CALLVALUE STOP 0x2E STOP CALLDATALOAD STOP CALLER STOP KECCAK256 STOP BALANCE STOP CALLVALUE STOP 0x2E STOP CODESIZE STOP CALLER STOP 0x2D STOP ORIGIN STOP 0x2E STOP CALLDATACOPY STOP ORIGIN STOP KECCAK256 STOP CODECOPY STOP 0x2E STOP ADDRESS STOP ORIGIN STOP 0x2D STOP CALLDATALOAD STOP 0x2E STOP CALLER STOP CALLDATASIZE STOP KECCAK256 STOP BALANCE STOP CALLDATACOPY STOP 0x2E STOP CODECOPY STOP CALLDATACOPY STOP 0x2D STOP CALLDATACOPY STOP 0x2E STOP CODECOPY STOP ORIGIN STOP KECCAK256 STOP ORIGIN STOP CALLDATASIZE STOP 0x2E STOP CODESIZE STOP CALLVALUE STOP GAS STOP PUSH14 0x2D00320037002E00360039002D STOP CALLDATALOAD STOP ADDRESS STOP 0x2E STOP CALLDATALOAD STOP CODESIZE STOP PUSH4 0x2E0034 STOP CODESIZE STOP 0x2D STOP 0x2E STOP BALANCE STOP CALLVALUE STOP KECCAK256 STOP BALANCE STOP 0x2E STOP ADDRESS STOP BALANCE STOP 0x2D STOP 0x2E STOP ORIGIN STOP CODECOPY STOP KECCAK256 STOP BALANCE STOP 0x2E STOP CALLDATACOPY STOP CALLVALUE STOP 0x2D STOP 0x2E STOP CALLER STOP CODESIZE STOP 0x2E STOP CODECOPY STOP CALLVALUE STOP 0x2D STOP 0x2E STOP BALANCE STOP BALANCE STOP KECCAK256 STOP BALANCE STOP 0x2E STOP CALLDATASIZE STOP CALLDATACOPY STOP 0x2D STOP 0x2E STOP ADDRESS STOP CALLDATALOAD STOP KECCAK256 STOP ORIGIN STOP 0x2E STOP BALANCE STOP CODESIZE STOP KECCAK256 STOP ADDRESS STOP KECCAK256 STOP 0x2E STOP CALLER STOP 0x2E STOP ADDRESS STOP CALLER STOP 0x2E STOP CALLDATACOPY STOP BALANCE STOP 0x2E STOP ADDRESS STOP CALLDATACOPY STOP KECCAK256 STOP BALANCE STOP 0x2E STOP ORIGIN STOP CALLDATASIZE STOP 0x2E STOP BALANCE STOP CODECOPY STOP 0x2E STOP CALLDATALOAD STOP ORIGIN STOP 0x2E STOP BALANCE STOP ORIGIN STOP 0x2E STOP CODECOPY STOP ORIGIN STOP 0x2E STOP ORIGIN STOP CALLDATASIZE STOP KECCAK256 STOP BALANCE STOP 0x2E STOP ORIGIN STOP CODESIZE STOP 0x2E STOP CALLER STOP CODECOPY STOP 0x2E STOP CALLVALUE STOP 0x2E STOP BALANCE STOP CALLVALUE STOP 0x2E STOP CALLDATACOPY STOP 0x2E STOP ORIGIN STOP CALLDATASIZE STOP 0x2E STOP CODECOPY STOP CALLDATASIZE STOP 0x2E STOP CALLER STOP CALLDATACOPY STOP 0x2E STOP CALLER STOP CALLDATALOAD STOP 0x2E STOP BALANCE STOP CALLVALUE STOP 0x2E STOP CALLDATASIZE STOP CALLER STOP 0x2E STOP ORIGIN STOP CALLDATASIZE STOP KECCAK256 STOP BALANCE STOP KECCAK256 STOP 0x2E STOP CALLVALUE STOP CALLDATALOAD STOP 0x2E STOP CALLVALUE STOP CALLDATASIZE STOP 0x2E STOP ORIGIN STOP CALLER STOP 0x2E STOP CODESIZE STOP 0x2E STOP CALLVALUE STOP CALLER STOP KECCAK256 STOP BALANCE STOP KECCAK256 STOP 0x2E STOP CALLDATALOAD STOP CALLDATALOAD STOP 0x2E STOP BALANCE STOP CALLVALUE STOP 0x2E STOP ADDRESS STOP CODECOPY STOP 0x2E STOP CALLVALUE STOP BALANCE STOP 0x2E STOP ORIGIN STOP CALLDATALOAD STOP 0x2E STOP CODECOPY STOP CALLER STOP 0x2E STOP CALLDATALOAD STOP CODECOPY STOP KECCAK256 STOP BALANCE STOP 0x2E STOP ADDRESS STOP CALLVALUE STOP 0x2E STOP CALLDATASIZE STOP CALLDATACOPY STOP 0x2E STOP CALLDATASIZE STOP CODESIZE STOP 0x2E STOP CALLVALUE STOP CALLDATASIZE STOP 0x2E STOP CODESIZE STOP CALLER STOP 0x2E STOP CALLDATALOAD STOP CALLDATALOAD STOP KECCAK256 STOP ADDRESS STOP KECCAK256 STOP ADDRESS STOP KECCAK256 STOP 0x2E STOP ORIGIN STOP ORIGIN STOP 0x2E STOP BALANCE STOP CALLER STOP 0x2E STOP CALLDATASIZE STOP CALLER STOP 0x2E STOP CALLVALUE STOP CALLDATASIZE STOP 0x2E STOP BALANCE STOP CODESIZE STOP 0x2E STOP BALANCE STOP CALLDATALOAD STOP 0x2E STOP CALLER STOP CALLER STOP 0x2E STOP ORIGIN STOP CALLDATACOPY STOP 0x2E STOP CALLER STOP ORIGIN STOP 0x2E STOP CALLVALUE STOP CALLER STOP KECCAK256 STOP ADDRESS STOP KECCAK256 STOP 0x2E STOP ADDRESS STOP CALLDATACOPY STOP 0x2D STOP 0x2E STOP ADDRESS STOP CALLER STOP 0x2E STOP ADDRESS STOP CODESIZE STOP 0x2D STOP 0x2E STOP BALANCE STOP BALANCE STOP 0x2E STOP ORIGIN STOP CALLDATALOAD STOP 0x2D STOP 0x2E STOP ADDRESS STOP ORIGIN STOP 0x2E STOP ADDRESS STOP CALLDATALOAD STOP 0x2D STOP 0x2E STOP ADDRESS STOP CALLDATACOPY STOP 0x2E STOP BALANCE STOP CODESIZE STOP 0x2D STOP 0x2E STOP BALANCE STOP CALLDATACOPY STOP 0x2E STOP CALLVALUE STOP CALLDATALOAD STOP 0x2D STOP 0x2E STOP ADDRESS STOP CODESIZE STOP 0x2E STOP ORIGIN STOP BALANCE STOP 0x2D STOP 0x2E STOP BALANCE STOP ORIGIN STOP 0x2E STOP CALLER STOP BALANCE STOP 0x2D STOP 0x2E STOP BALANCE STOP CALLDATASIZE STOP 0x2E STOP CALLVALUE STOP ORIGIN STOP 0x2D STOP 0x2E STOP ADDRESS STOP CODESIZE STOP 0x2E STOP ORIGIN STOP ORIGIN STOP 0x2D STOP 0x2E STOP ADDRESS STOP CALLDATASIZE STOP 0x2E STOP BALANCE STOP CODESIZE STOP 0x2D STOP 0x2E STOP ORIGIN STOP 0x2E STOP CALLDATALOAD STOP CALLDATALOAD STOP 0x2D STOP 0x2E STOP BALANCE STOP 0x2E STOP ORIGIN STOP CODECOPY STOP 0x2D STOP 0x2E STOP BALANCE STOP ORIGIN STOP 0x2E STOP CALLER STOP ORIGIN STOP 0x2D STOP 0x2E STOP BALANCE STOP CALLVALUE STOP 0x2E STOP CALLVALUE STOP BALANCE STOP 0x2D STOP 0x2E STOP ADDRESS STOP CALLVALUE STOP 0x2E STOP BALANCE STOP CALLDATALOAD STOP 0x2D STOP 0x2E STOP ADDRESS STOP CODESIZE STOP 0x2E STOP CALLER STOP BALANCE STOP 0x2D STOP 0x2E STOP ADDRESS STOP CODESIZE STOP 0x2E STOP CALLER STOP BALANCE STOP 0x2D STOP 0x2E STOP ADDRESS STOP CALLDATALOAD STOP 0x2E STOP BALANCE STOP CODESIZE STOP 0x2D STOP 0x2E STOP ADDRESS STOP CALLDATALOAD STOP 0x2E STOP BALANCE STOP CODECOPY STOP 0x2D STOP 0x2E STOP ADDRESS STOP CALLDATASIZE STOP 0x2E STOP ORIGIN STOP 0x2D STOP 0x2E STOP ADDRESS STOP CALLDATACOPY STOP 0x2E STOP ADDRESS STOP CALLDATACOPY STOP 0x2D STOP 0x2E STOP CALLDATASIZE STOP 0x2D STOP 0x2E STOP CALLVALUE STOP CALLVALUE STOP 0x2D STOP 0x2E STOP CALLDATACOPY STOP CALLVALUE STOP 0x2D STOP 0x2E STOP CALLDATALOAD STOP CALLDATASIZE STOP KECCAK256 STOP ADDRESS STOP KECCAK256 STOP ADDRESS STOP 0x2D STOP 0x2E STOP ORIGIN STOP CALLDATALOAD STOP 0x2D STOP 0x2E STOP ORIGIN STOP CALLER STOP 0x2D STOP BALANCE STOP 0x2E STOP CALLDATASIZE STOP CALLER STOP 0x2D STOP BALANCE STOP 0x2E STOP CALLER STOP CALLDATALOAD STOP 0x2D STOP 0x2E STOP CODECOPY STOP CALLDATALOAD STOP 0x2D STOP 0x2E STOP CALLDATACOPY STOP CALLDATACOPY STOP 0x2D STOP BALANCE STOP 0x2E STOP CODESIZE STOP ORIGIN STOP 0x2D STOP BALANCE STOP 0x2E STOP ORIGIN STOP ORIGIN STOP 0x2D STOP ORIGIN STOP 0x2E STOP CALLVALUE STOP BALANCE STOP 0x2D STOP BALANCE STOP 0x2E STOP CALLDATALOAD STOP BALANCE STOP 0x2D STOP 0x2E STOP CALLDATASIZE STOP BALANCE STOP 0x2D STOP 0x2E STOP CALLER STOP BALANCE STOP 0x2D STOP BALANCE STOP 0x2E STOP ORIGIN STOP CALLDATALOAD STOP 0x2D STOP 0x2E STOP CALLDATASIZE STOP CALLER STOP 0x2D STOP ORIGIN STOP 0x2E STOP BALANCE STOP CODESIZE STOP 0x2D STOP 0x2E STOP CODESIZE STOP CALLDATACOPY STOP 0x2D STOP 0x2E STOP CODESIZE STOP CALLDATASIZE STOP 0x2D STOP 0x2E STOP ORIGIN STOP ORIGIN STOP 0x2D STOP BALANCE STOP 0x2E STOP CALLDATALOAD STOP CALLER STOP 0x2D STOP 0x2E STOP ORIGIN STOP CALLDATACOPY STOP 0x2D STOP ORIGIN STOP 0x2E STOP ADDRESS STOP CALLDATACOPY STOP 0x2D STOP 0x2E STOP CALLER STOP 0x2D STOP BALANCE STOP 0x2E STOP CALLER STOP CALLER STOP 0x2D STOP 0x2E STOP ADDRESS STOP CODESIZE STOP 0x2D STOP ORIGIN STOP 0x2E STOP CALLER STOP CALLDATALOAD STOP 0x2E STOP ADDRESS STOP CALLDATASIZE STOP 0x2D STOP ORIGIN STOP 0x2E STOP CALLDATASIZE STOP CODESIZE STOP 0x2E STOP BALANCE STOP BALANCE STOP 0x2D STOP 0x2E STOP CALLDATASIZE STOP 0x2E STOP ADDRESS STOP CODECOPY STOP 0x2D STOP BALANCE STOP 0x2E STOP CALLVALUE STOP CALLDATALOAD STOP 0x2E STOP ORIGIN STOP CALLER STOP 0x2D STOP ORIGIN STOP 0x2E STOP CALLVALUE STOP BALANCE STOP 0x2E STOP CALLDATASIZE STOP CALLVALUE STOP 0x2D STOP BALANCE STOP 0x2E STOP CODESIZE STOP BALANCE STOP 0x2E STOP CALLDATACOPY STOP CODECOPY STOP 0x2D STOP ORIGIN STOP 0x2E STOP CALLDATACOPY STOP CALLVALUE STOP KECCAK256 STOP ORIGIN STOP 0x2E STOP ADDRESS STOP ORIGIN STOP 0x2D STOP ORIGIN STOP 0x2E STOP CODECOPY STOP CALLDATASIZE STOP KECCAK256 STOP BALANCE STOP 0x2E STOP CODESIZE STOP CALLER STOP 0x2D STOP 0x2E STOP BALANCE STOP CALLER STOP 0x2D STOP 0x2E STOP BALANCE STOP BALANCE STOP 0x2E STOP BALANCE STOP CALLER STOP 0x2D STOP 0x2E STOP CALLDATASIZE STOP ORIGIN STOP 0x2E STOP ORIGIN STOP CODECOPY STOP 0x2D STOP 0x2E STOP CODESIZE STOP CALLDATASIZE STOP 0x2E STOP BALANCE STOP CALLDATACOPY STOP 0x2D STOP 0x2E STOP ORIGIN STOP CALLDATACOPY STOP 0x2E STOP CALLER STOP ORIGIN STOP 0x2D STOP 0x2E STOP CALLVALUE STOP KECCAK256 STOP BALANCE STOP 0x2E STOP ORIGIN STOP CODECOPY STOP 0x2D STOP BALANCE STOP 0x2E STOP BALANCE STOP BALANCE STOP 0x2E STOP CALLDATASIZE STOP CALLDATASIZE STOP 0x2D STOP 0x2E STOP CALLVALUE STOP CODECOPY STOP KECCAK256 STOP BALANCE STOP 0x2E STOP ADDRESS STOP CODESIZE STOP 0x2D STOP 0x2E STOP CALLDATACOPY STOP CODECOPY STOP KECCAK256 STOP BALANCE STOP 0x2E STOP CALLDATALOAD STOP CALLER STOP 0x2D STOP BALANCE STOP 0x2E STOP ADDRESS STOP CALLDATALOAD STOP 0x2E STOP CALLVALUE STOP CODECOPY STOP 0x2D STOP 0x2E STOP ORIGIN STOP CODESIZE STOP 0x2E STOP CODESIZE STOP CALLDATACOPY STOP 0x2D STOP 0x2E STOP CALLVALUE STOP CALLDATALOAD STOP KECCAK256 STOP BALANCE STOP 0x2E STOP BALANCE STOP BALANCE STOP 0x2D STOP 0x2E STOP CALLDATALOAD STOP CALLDATASIZE STOP 0x2E STOP ORIGIN STOP BALANCE STOP 0x2D STOP 0x2E STOP ADDRESS STOP CODECOPY STOP 0x2E STOP CODESIZE STOP BALANCE STOP 0x2D STOP 0x2E STOP CALLER STOP CALLDATALOAD STOP KECCAK256 STOP BALANCE STOP 0x2E STOP CALLDATASIZE STOP CALLER STOP 0x2D STOP 0x2E STOP CALLDATALOAD STOP CODECOPY STOP GAS STOP PUSH14 0x2D00320035002E003300340020 STOP BALANCE STOP CODESIZE STOP 0x2E STOP CODECOPY STOP CALLVALUE STOP PUSH4 0x2D002E STOP CALLER STOP CALLER STOP 0x2D STOP ORIGIN STOP 0x2E STOP CALLVALUE STOP BALANCE STOP 0x2D STOP 0x2E STOP ORIGIN STOP BALANCE STOP 0x2D STOP CALLVALUE STOP 0x2E STOP CALLER STOP CALLDATALOAD STOP 0x2D STOP 0x2E STOP ADDRESS STOP CALLVALUE STOP 0x2D STOP CALLDATALOAD STOP 0x2E STOP CALLDATASIZE STOP CALLDATALOAD STOP 0x2E STOP ADDRESS STOP CALLVALUE STOP 0x2D STOP 0x2E STOP CALLER STOP CALLVALUE STOP 0x2E STOP ORIGIN STOP BALANCE STOP 0x2D STOP BALANCE STOP 0x2E STOP CALLDATALOAD STOP CALLDATALOAD STOP 0x2E STOP CALLDATASIZE STOP CALLER STOP 0x2D STOP CALLER STOP 0x2E STOP BALANCE STOP 0x2E STOP CALLDATACOPY STOP CALLVALUE STOP 0x2D STOP ORIGIN STOP 0x2E STOP CALLDATACOPY STOP CALLER STOP KECCAK256 STOP BALANCE STOP 0x2E STOP CALLDATACOPY STOP CALLDATALOAD STOP 0x2D STOP CALLVALUE STOP 0x2E STOP CALLDATALOAD STOP CALLDATASIZE STOP KECCAK256 STOP ORIGIN STOP 0x2E STOP CALLER STOP CODECOPY STOP 0x2D STOP CALLDATALOAD STOP 0x2E STOP CALLDATACOPY STOP CALLER STOP 0x2E STOP CALLDATACOPY STOP CODESIZE STOP 0x2D STOP BALANCE STOP 0x2E STOP CALLVALUE STOP KECCAK256 STOP BALANCE STOP 0x2E STOP CALLVALUE STOP CALLVALUE STOP 0x2D STOP ORIGIN STOP 0x2E STOP CALLDATASIZE STOP KECCAK256 STOP ORIGIN STOP 0x2E STOP CALLDATASIZE STOP CALLDATASIZE STOP 0x2D STOP CALLER STOP 0x2E STOP CODESIZE STOP CALLVALUE STOP 0x2E STOP CALLVALUE STOP CALLDATALOAD STOP 0x2D STOP 0x2E STOP CALLVALUE STOP CALLDATASIZE STOP KECCAK256 STOP BALANCE STOP 0x2E STOP CALLER STOP 0x2D STOP BALANCE STOP 0x2E STOP ORIGIN STOP CALLDATALOAD STOP KECCAK256 STOP ORIGIN STOP 0x2E STOP CALLVALUE STOP CODESIZE STOP 0x2D STOP BALANCE STOP 0x2E STOP CODECOPY STOP CALLVALUE STOP 0x2E STOP CALLER STOP CALLER STOP 0x2D STOP 0x2E STOP BALANCE STOP CODECOPY STOP KECCAK256 STOP BALANCE STOP 0x2E STOP BALANCE STOP CALLVALUE STOP 0x2D STOP 0x2E STOP CALLDATASIZE STOP CALLVALUE STOP KECCAK256 STOP ORIGIN STOP 0x2E STOP ORIGIN STOP CALLER STOP 0x2D STOP 0x2E STOP CODECOPY STOP CODESIZE STOP 0x2E STOP CODESIZE STOP BALANCE STOP 0x2D STOP 0x2E STOP ORIGIN STOP CALLDATALOAD STOP KECCAK256 STOP ORIGIN STOP 0x2E STOP CALLER STOP CALLER STOP 0x2D STOP 0x2E STOP CALLDATACOPY STOP KECCAK256 STOP CALLVALUE STOP 0x2E STOP ORIGIN STOP CALLDATASIZE STOP 0x2D STOP 0x2E STOP CALLVALUE STOP ORIGIN STOP 0x2E STOP CALLDATASIZE STOP BALANCE STOP 0x2E STOP ADDRESS STOP CODECOPY STOP KECCAK256 STOP ORIGIN STOP 0x2E STOP BALANCE STOP CALLDATASIZE STOP 0x2E STOP CALLER STOP CALLER STOP KECCAK256 STOP CALLER STOP 0x2E STOP CALLDATASIZE STOP CALLDATASIZE STOP KECCAK256 STOP BALANCE STOP 0x2E STOP CALLVALUE STOP CALLDATACOPY STOP KECCAK256 STOP BALANCE STOP 0x2E STOP CALLDATASIZE STOP KECCAK256 STOP BALANCE STOP 0x2E STOP ORIGIN STOP BALANCE STOP KECCAK256 STOP ORIGIN STOP 0x2E STOP BALANCE STOP BALANCE STOP KECCAK256 STOP ORIGIN STOP 0x2E STOP CALLDATASIZE STOP CALLDATASIZE STOP KECCAK256 STOP BALANCE STOP 0x2E STOP CODECOPY STOP CODECOPY STOP KECCAK256 STOP CALLER STOP 0x2E STOP ADDRESS STOP CALLVALUE STOP KECCAK256 STOP ADDRESS STOP KECCAK256 STOP 0x2E STOP ADDRESS STOP BALANCE STOP 0x2D STOP 0x2E STOP ADDRESS STOP CALLDATALOAD STOP 0x2E STOP BALANCE STOP CODESIZE STOP 0x2D STOP 0x2E STOP BALANCE STOP ORIGIN STOP 0x2E STOP CALLER STOP CODESIZE STOP 0x2D STOP 0x2E STOP ADDRESS STOP CODECOPY STOP 0x2E STOP ORIGIN STOP CODECOPY STOP 0x2D STOP 0x2E STOP BALANCE STOP CALLDATASIZE STOP 0x2E STOP CALLDATALOAD STOP 0x2D STOP 0x2E STOP BALANCE STOP CODECOPY STOP 0x2E STOP CALLDATALOAD STOP CODESIZE STOP 0x2D STOP 0x2E STOP CALLER STOP CODECOPY STOP KECCAK256 STOP BALANCE STOP 0x2E STOP BALANCE STOP CALLDATASIZE STOP 0x2D STOP 0x2E STOP CALLER STOP CALLDATASIZE STOP KECCAK256 STOP BALANCE STOP 0x2E STOP BALANCE STOP CALLER STOP 0x2D STOP 0x2E STOP CALLVALUE STOP CODESIZE STOP KECCAK256 STOP BALANCE STOP 0x2E STOP CALLVALUE STOP CALLER STOP 0x2D STOP 0x2E STOP ORIGIN STOP 0x2E STOP CALLDATALOAD STOP CALLVALUE STOP 0x2D STOP 0x2E STOP CALLVALUE STOP 0x2E STOP CODECOPY STOP CALLDATALOAD STOP 0x2D STOP 0x2E STOP CALLDATALOAD STOP ORIGIN STOP KECCAK256 STOP BALANCE STOP 0x2E STOP ORIGIN STOP 0x2D STOP 0x2E STOP ADDRESS STOP CALLDATACOPY STOP 0x2E STOP BALANCE STOP CALLDATALOAD STOP 0x2D STOP 0x2E STOP ADDRESS STOP CALLDATASIZE STOP 0x2E STOP BALANCE STOP CALLER STOP 0x2D STOP 0x2E STOP CALLVALUE STOP CODESIZE STOP 0x2E STOP CODECOPY STOP CALLDATALOAD STOP 0x2D STOP 0x2E STOP ADDRESS STOP CALLDATASIZE STOP 0x2E STOP BALANCE STOP ORIGIN STOP 0x2D STOP 0x2E STOP ORIGIN STOP CALLDATACOPY STOP 0x2E STOP CALLDATALOAD STOP ORIGIN STOP 0x2D STOP 0x2E STOP CALLDATALOAD STOP 0x2E STOP CODECOPY STOP CALLDATACOPY STOP 0x2D STOP 0x2E STOP CALLVALUE STOP 0x2E STOP CALLDATACOPY STOP CODESIZE STOP 0x2D STOP 0x2E STOP CALLER STOP CODECOPY STOP 0x2E STOP CALLDATACOPY STOP CALLDATACOPY STOP 0x2D STOP 0x2E STOP CALLVALUE STOP CODECOPY STOP 0x2E STOP CODECOPY STOP CALLDATALOAD STOP 0x2D STOP 0x2E STOP ORIGIN STOP CALLDATALOAD STOP 0x2E STOP CALLVALUE STOP CALLDATACOPY STOP 0x2D STOP 0x2E STOP CALLER STOP CODECOPY STOP 0x2E STOP CALLDATACOPY STOP CALLVALUE STOP 0x2D STOP 0x2E STOP CALLDATASIZE STOP CALLVALUE STOP KECCAK256 STOP BALANCE STOP 0x2E STOP ADDRESS STOP CODECOPY STOP 0x2D STOP 0x2E STOP ADDRESS STOP CODECOPY STOP 0x2E STOP BALANCE STOP CALLER STOP 0x2D STOP 0x2E STOP CALLER STOP 0x2E STOP CALLVALUE STOP CALLER STOP 0x2D STOP 0x2E STOP CALLDATASIZE STOP 0x2E STOP CALLDATACOPY STOP CALLDATACOPY STOP 0x2D STOP 0x2E STOP ORIGIN STOP BALANCE STOP 0x2E STOP ORIGIN STOP CALLVALUE STOP 0x2D STOP 0x2E STOP ORIGIN STOP BALANCE STOP 0x2E STOP ORIGIN STOP BALANCE STOP 0x2D STOP 0x2E STOP CALLDATASIZE STOP CALLDATASIZE STOP 0x2E STOP CALLDATASIZE STOP CODECOPY STOP 0x2D STOP 0x2E STOP BALANCE STOP CALLVALUE STOP 0x2E STOP BALANCE STOP CALLDATALOAD STOP 0x2D STOP 0x2E STOP BALANCE STOP CALLVALUE STOP 0x2E STOP BALANCE STOP CALLDATALOAD STOP 0x2D STOP 0x2E STOP CODESIZE STOP CALLER STOP 0x2E STOP CODECOPY STOP 0x2D STOP 0x2E STOP ORIGIN STOP CALLDATASIZE STOP 0x2E STOP ORIGIN STOP CODECOPY STOP 0x2D STOP 0x2E STOP CALLVALUE STOP 0x2E STOP CALLVALUE STOP CALLER STOP 0x2D STOP 0x2E STOP CALLVALUE STOP BALANCE STOP 0x2E STOP CALLVALUE STOP CALLVALUE STOP 0x2D STOP 0x2E STOP ORIGIN STOP BALANCE STOP 0x2E STOP ORIGIN STOP ORIGIN STOP 0x2D STOP 0x2E STOP CALLDATALOAD STOP CALLDATASIZE STOP 0x2E STOP CALLDATALOAD STOP CODESIZE STOP 0x2D STOP BALANCE STOP 0x2E STOP ADDRESS STOP CALLDATACOPY STOP 0x2E STOP CODECOPY STOP CODESIZE STOP 0x2D STOP 0x2E STOP CALLER STOP CALLVALUE STOP 0x2E STOP ORIGIN STOP CALLDATACOPY STOP 0x2D STOP 0x2E STOP CALLDATASIZE STOP ORIGIN STOP 0x2E STOP CALLVALUE STOP CALLDATALOAD STOP 0x2D STOP 0x2E STOP CODESIZE STOP CODECOPY STOP 0x2E STOP CALLDATASIZE STOP ORIGIN STOP 0x2D STOP 0x2E STOP CALLER STOP ORIGIN STOP 0x2E STOP ORIGIN STOP 0x2D STOP 0x2E STOP CALLER STOP CALLDATASIZE STOP 0x2E STOP ORIGIN STOP BALANCE STOP 0x2D STOP 0x2E STOP CODESIZE STOP 0x2E STOP CALLVALUE STOP CALLDATACOPY STOP 0x2D STOP 0x2E STOP CODECOPY STOP CALLDATALOAD STOP 0x2E STOP CALLDATALOAD STOP CALLDATACOPY STOP 0x2D STOP BALANCE STOP 0x2E STOP BALANCE STOP BALANCE STOP 0x2E STOP CALLDATACOPY STOP CALLVALUE STOP 0x2D STOP BALANCE STOP 0x2E STOP CALLDATACOPY STOP CALLER STOP KECCAK256 STOP BALANCE STOP 0x2E STOP ADDRESS STOP CALLER STOP 0x2D STOP 0x2E STOP ADDRESS STOP ORIGIN STOP KECCAK256 STOP ADDRESS STOP KECCAK256 STOP ADDRESS STOP KECCAK256 STOP ADDRESS STOP 0x2D STOP 0x2E STOP CALLDATASIZE STOP BALANCE STOP 0x2E STOP ORIGIN STOP CALLDATASIZE STOP 0x2D STOP BALANCE STOP 0x2E STOP ORIGIN STOP 0x2E STOP CALLDATALOAD STOP BALANCE STOP 0x2D STOP BALANCE STOP 0x2E STOP BALANCE STOP CALLDATASIZE STOP 0x2E STOP CALLVALUE STOP CODECOPY STOP 0x2D STOP BALANCE STOP 0x2E STOP CALLER STOP CALLDATACOPY STOP 0x2E STOP CALLDATALOAD STOP CODESIZE STOP 0x2D STOP 0x2E STOP CALLDATASIZE STOP BALANCE STOP 0x2E STOP ORIGIN STOP CALLDATASIZE STOP 0x2D STOP BALANCE STOP 0x2E STOP BALANCE STOP 0x2E STOP CALLVALUE STOP CALLVALUE STOP 0x2D STOP BALANCE STOP 0x2E STOP CALLDATALOAD STOP CALLDATACOPY STOP 0x2E STOP CALLDATASIZE STOP ORIGIN STOP 0x2D STOP 0x2E STOP CALLVALUE STOP 0x2E STOP BALANCE STOP CALLDATALOAD STOP 0x2D STOP 0x2E STOP CALLVALUE STOP CODESIZE STOP 0x2E STOP BALANCE STOP CODESIZE STOP 0x2D STOP BALANCE STOP 0x2E STOP BALANCE STOP CODESIZE STOP 0x2E STOP CALLVALUE STOP CALLDATALOAD STOP 0x2D STOP 0x2E STOP CALLER STOP CALLDATALOAD STOP 0x2E STOP BALANCE STOP CALLER STOP 0x2D STOP 0x2E STOP CALLVALUE STOP CALLDATASIZE STOP 0x2E STOP BALANCE STOP CODESIZE STOP 0x2D STOP 0x2E STOP CALLDATASIZE STOP CODESIZE STOP 0x2E STOP ORIGIN STOP CALLDATASIZE STOP 0x2D STOP 0x2E STOP CALLER STOP CALLER STOP 0x2E STOP BALANCE STOP ORIGIN STOP 0x2D STOP 0x2E STOP CALLDATALOAD STOP CALLDATALOAD STOP 0x2E STOP ORIGIN STOP 0x2D STOP 0x2E STOP CODECOPY STOP CODESIZE STOP 0x2E STOP CALLER STOP CALLVALUE STOP 0x2D STOP 0x2E STOP BALANCE STOP CALLDATACOPY STOP 0x2E STOP ADDRESS STOP CALLDATASIZE STOP 0x2D STOP 0x2E STOP CODESIZE STOP CALLDATASIZE STOP 0x2E STOP ORIGIN STOP CODECOPY STOP 0x2D STOP BALANCE STOP 0x2E STOP CALLVALUE STOP BALANCE STOP 0x2E STOP CALLVALUE STOP CODESIZE STOP 0x2D STOP 0x2E STOP CALLDATACOPY STOP BALANCE STOP 0x2E STOP ORIGIN STOP CALLVALUE STOP 0x2D STOP 0x2E STOP CODESIZE STOP ORIGIN STOP 0x2E STOP ORIGIN STOP CODECOPY STOP 0x2D STOP BALANCE STOP 0x2E STOP BALANCE STOP CODESIZE STOP 0x2E STOP CALLVALUE STOP BALANCE STOP 0x2D STOP 0x2E STOP CALLER STOP CODESIZE STOP 0x2E STOP BALANCE STOP CALLER STOP 0x2D STOP 0x2E STOP CALLDATACOPY STOP 0x2E STOP ORIGIN STOP ORIGIN STOP 0x2D STOP 0x2E STOP CODECOPY STOP BALANCE STOP 0x2E STOP ORIGIN STOP CODESIZE STOP GAS STOP PUSH14 0x390030002E0039003900200032 STOP 0x2E STOP CODECOPY STOP CALLVALUE STOP PUSH4 0x2D002E STOP ADDRESS STOP CALLDATASIZE STOP 0x2E STOP CALLDATALOAD STOP BALANCE STOP 0x2D STOP 0x2E STOP BALANCE STOP CALLDATACOPY STOP KECCAK256 STOP BALANCE STOP 0x2E STOP ORIGIN STOP 0x2D STOP 0x2E STOP CALLER STOP CODECOPY STOP KECCAK256 STOP BALANCE STOP 0x2E STOP CODECOPY STOP CODESIZE STOP 0x2D STOP 0x2E STOP ORIGIN STOP CALLDATACOPY STOP 0x2E STOP CODECOPY STOP CALLDATACOPY STOP 0x2D STOP 0x2E STOP CALLDATALOAD STOP CALLDATACOPY STOP KECCAK256 STOP BALANCE STOP 0x2E STOP CALLDATASIZE STOP CALLDATALOAD STOP 0x2D STOP 0x2E STOP CODESIZE STOP CALLDATACOPY STOP KECCAK256 STOP ORIGIN STOP 0x2E STOP CALLER STOP 0x2D STOP 0x2E STOP BALANCE STOP CALLVALUE STOP 0x2E STOP CALLER STOP BALANCE STOP 0x2D STOP 0x2E STOP CALLDATALOAD STOP CALLVALUE STOP KECCAK256 STOP BALANCE STOP 0x2E STOP BALANCE STOP CODESIZE STOP 0x2D STOP BALANCE STOP 0x2E STOP BALANCE STOP CALLDATACOPY STOP KECCAK256 STOP ORIGIN STOP 0x2E STOP ORIGIN STOP BALANCE STOP 0x2D STOP 0x2E STOP CALLVALUE STOP ORIGIN STOP 0x2E STOP CALLDATACOPY STOP 0x2D STOP 0x2E STOP CALLDATACOPY STOP CODESIZE STOP KECCAK256 STOP BALANCE STOP 0x2E STOP BALANCE STOP CODESIZE STOP 0x2D STOP BALANCE STOP 0x2E STOP ORIGIN STOP CALLDATACOPY STOP KECCAK256 STOP BALANCE STOP 0x2E STOP CODESIZE STOP CALLVALUE STOP 0x2D STOP 0x2E STOP CALLVALUE STOP CALLDATALOAD STOP 0x2E STOP CALLDATASIZE STOP BALANCE STOP 0x2D STOP 0x2E STOP CODESIZE STOP CALLER STOP KECCAK256 STOP BALANCE STOP 0x2E STOP BALANCE STOP 0x2D STOP BALANCE STOP 0x2E STOP BALANCE STOP ORIGIN STOP KECCAK256 STOP BALANCE STOP 0x2E STOP CALLVALUE STOP CALLDATASIZE STOP KECCAK256 STOP BALANCE STOP 0x2E STOP CALLER STOP CALLER STOP 0x2D STOP 0x2E STOP ORIGIN STOP ORIGIN STOP KECCAK256 STOP CALLER STOP 0x2E STOP BALANCE STOP CALLDATASIZE STOP 0x2D STOP 0x2E STOP CALLVALUE STOP CODESIZE STOP KECCAK256 STOP CALLDATALOAD STOP 0x2E STOP CALLER STOP CALLDATALOAD STOP 0x2D STOP 0x2E STOP CALLDATASIZE STOP CODECOPY STOP KECCAK256 STOP BALANCE STOP 0x2E STOP CALLDATACOPY STOP CALLDATALOAD STOP 0x2D STOP 0x2E STOP BALANCE STOP CALLDATACOPY STOP KECCAK256 STOP CALLER STOP 0x2E STOP ADDRESS STOP CALLVALUE STOP 0x2D STOP 0x2E STOP ORIGIN STOP CALLVALUE STOP KECCAK256 STOP CALLVALUE STOP 0x2E STOP CALLDATACOPY STOP CALLDATALOAD STOP 0x2D STOP 0x2E STOP CALLER STOP CALLER STOP KECCAK256 STOP ORIGIN STOP 0x2E STOP CODECOPY STOP CALLER STOP 0x2D STOP 0x2E STOP BALANCE STOP CALLDATASIZE STOP KECCAK256 STOP CALLDATALOAD STOP 0x2E STOP ORIGIN STOP ORIGIN STOP 0x2D STOP 0x2E STOP ORIGIN STOP BALANCE STOP KECCAK256 STOP CALLDATASIZE STOP 0x2E STOP CALLER STOP CALLDATACOPY STOP 0x2D STOP 0x2E STOP ORIGIN STOP ORIGIN STOP KECCAK256 STOP BALANCE STOP 0x2E STOP CALLDATACOPY STOP ORIGIN STOP 0x2D STOP 0x2E STOP ADDRESS STOP CALLER STOP KECCAK256 STOP ORIGIN STOP 0x2E STOP CODECOPY STOP CALLDATACOPY STOP 0x2D STOP 0x2E STOP ADDRESS STOP BALANCE STOP KECCAK256 STOP CALLVALUE STOP 0x2E STOP CALLDATACOPY STOP CODECOPY STOP KECCAK256 STOP ADDRESS STOP KECCAK256 STOP BALANCE STOP 0x2E STOP ORIGIN STOP CODESIZE STOP 0x2E STOP ADDRESS STOP BALANCE STOP KECCAK256 STOP ORIGIN STOP 0x2E STOP CODECOPY STOP CALLDATACOPY STOP 0x2E STOP ADDRESS STOP CALLER STOP KECCAK256 STOP CALLDATALOAD STOP 0x2E STOP ORIGIN STOP BALANCE STOP 0x2E STOP ADDRESS STOP CODECOPY STOP KECCAK256 STOP BALANCE STOP 0x2E STOP CODESIZE STOP CALLER STOP 0x2E STOP ADDRESS STOP CALLDATALOAD STOP KECCAK256 STOP CALLER STOP 0x2E STOP CALLER STOP CODECOPY STOP 0x2E STOP BALANCE STOP KECCAK256 STOP CALLDATALOAD STOP 0x2E STOP CALLDATALOAD STOP 0x2E STOP ORIGIN STOP ORIGIN STOP KECCAK256 STOP ORIGIN STOP 0x2E STOP ORIGIN STOP CODECOPY STOP 0x2E STOP BALANCE STOP CALLVALUE STOP KECCAK256 STOP ORIGIN STOP 0x2E STOP CALLDATASIZE STOP CALLDATASIZE STOP 0x2E STOP ORIGIN STOP ORIGIN STOP KECCAK256 STOP CALLVALUE STOP 0x2E STOP CALLDATACOPY STOP BALANCE STOP 0x2E STOP CALLER STOP 0x2E STOP ORIGIN STOP CALLDATASIZE STOP 0x2E STOP ADDRESS STOP BALANCE STOP 0x2E STOP CALLDATASIZE STOP CODECOPY STOP 0x2E STOP ADDRESS STOP CALLDATASIZE STOP KECCAK256 STOP BALANCE STOP 0x2E STOP ORIGIN STOP CALLDATASIZE STOP 0x2E STOP ADDRESS STOP CALLVALUE STOP 0x2E STOP CALLDATACOPY STOP BALANCE STOP 0x2D STOP 0x2E STOP ADDRESS STOP CALLER STOP 0x2E STOP CODESIZE STOP CALLDATALOAD STOP 0x2D STOP 0x2E STOP BALANCE STOP ORIGIN STOP 0x2E STOP CODECOPY STOP CALLER STOP 0x2D STOP 0x2E STOP ORIGIN STOP CALLER STOP 0x2E STOP ADDRESS STOP CALLDATACOPY STOP 0x2D STOP 0x2E STOP BALANCE STOP 0x2E STOP BALANCE STOP 0x2D STOP 0x2E STOP ORIGIN STOP BALANCE STOP 0x2E STOP ADDRESS STOP BALANCE STOP 0x2D STOP 0x2E STOP CODECOPY STOP BALANCE STOP 0x2D STOP 0x2E STOP ADDRESS STOP CALLDATACOPY STOP 0x2D STOP 0x2E STOP CALLDATALOAD STOP CALLDATALOAD STOP 0x2D STOP 0x2E STOP BALANCE STOP 0x2D STOP 0x2E STOP CODESIZE STOP ORIGIN STOP 0x2D STOP 0x2E STOP ORIGIN STOP 0x2D STOP BALANCE STOP 0x2E STOP ORIGIN STOP CALLDATALOAD STOP 0x2D STOP 0x2E STOP BALANCE STOP BALANCE STOP 0x2D STOP 0x2E STOP CALLVALUE STOP CALLDATACOPY STOP 0x2D STOP 0x2E STOP ORIGIN STOP ORIGIN STOP 0x2D STOP 0x2E STOP CODESIZE STOP ORIGIN STOP 0x2D STOP 0x2E STOP CALLER STOP CALLER STOP 0x2D STOP BALANCE STOP 0x2E STOP BALANCE STOP CALLER STOP 0x2D STOP 0x2E STOP CALLER STOP ORIGIN STOP 0x2D STOP 0x2E STOP CODECOPY STOP CALLER STOP 0x2D STOP 0x2E STOP CALLDATALOAD STOP ORIGIN STOP 0x2D STOP BALANCE STOP 0x2E STOP CALLDATALOAD STOP BALANCE STOP 0x2D STOP 0x2E STOP CODECOPY STOP CALLDATACOPY STOP 0x2D STOP ORIGIN STOP 0x2E STOP BALANCE STOP CALLDATALOAD STOP 0x2D STOP 0x2E STOP ADDRESS STOP CALLVALUE STOP 0x2D STOP 0x2E STOP ADDRESS STOP CALLDATALOAD STOP 0x2D STOP 0x2E STOP ORIGIN STOP ORIGIN STOP 0x2D STOP 0x2E STOP CALLER STOP BALANCE STOP 0x2D STOP 0x2E STOP CALLDATALOAD STOP BALANCE STOP 0x2D STOP 0x2E STOP CALLDATASIZE STOP 0x2D STOP 0x2E STOP CALLDATASIZE STOP CALLER STOP 0x2D STOP 0x2E STOP CALLDATASIZE STOP CALLDATASIZE STOP 0x2D STOP BALANCE STOP 0x2E STOP ORIGIN STOP CALLER STOP 0x2D STOP 0x2E STOP CODECOPY STOP CODECOPY STOP 0x2D STOP BALANCE STOP 0x2E STOP CALLDATACOPY STOP 0x2D STOP BALANCE STOP 0x2E STOP ORIGIN STOP CALLDATALOAD STOP 0x2D STOP 0x2E STOP CALLER STOP CODESIZE STOP 0x2D STOP 0x2E STOP ORIGIN STOP BALANCE STOP 0x2D STOP 0x2E STOP CODECOPY STOP CALLDATASIZE STOP 0x2D STOP 0x2E STOP CALLDATALOAD STOP ORIGIN STOP 0x2D STOP BALANCE STOP 0x2E STOP CALLDATACOPY STOP CALLDATASIZE STOP 0x2D STOP 0x2E STOP CALLDATACOPY STOP BALANCE STOP 0x2D STOP 0x2E STOP CALLVALUE STOP BALANCE STOP 0x2D STOP 0x2E STOP BALANCE STOP 0x2D STOP 0x2E STOP CALLDATACOPY STOP CALLVALUE STOP 0x2D STOP 0x2E STOP BALANCE STOP CALLER STOP 0x2D STOP BALANCE STOP 0x2E STOP ADDRESS STOP CODECOPY STOP 0x2D STOP 0x2E STOP BALANCE STOP CALLDATASIZE STOP 0x2D STOP 0x2E STOP CALLER STOP CODESIZE STOP 0x2D STOP 0x2E STOP ADDRESS STOP CALLVALUE STOP 0x2D STOP 0x2E STOP CALLER STOP CODECOPY STOP 0x2D STOP 0x2E STOP ADDRESS STOP BALANCE STOP 0x2D STOP BALANCE STOP 0x2E STOP CALLDATALOAD STOP CALLDATACOPY STOP 0x2D STOP 0x2E STOP ADDRESS STOP CALLDATASIZE STOP 0x2D STOP BALANCE STOP 0x2E STOP ORIGIN STOP CALLDATACOPY STOP 0x2D STOP 0x2E STOP ADDRESS STOP CALLDATALOAD STOP 0x2D STOP BALANCE STOP 0x2E STOP CALLVALUE STOP CALLDATALOAD STOP 0x2D STOP 0x2E STOP ADDRESS STOP CALLDATALOAD STOP 0x2D STOP ORIGIN STOP 0x2E STOP BALANCE STOP CALLVALUE STOP 0x2D STOP 0x2E STOP ADDRESS STOP CODESIZE STOP 0x2D STOP ORIGIN STOP 0x2E STOP ORIGIN STOP ORIGIN STOP 0x2D STOP 0x2E STOP ADDRESS STOP CODECOPY STOP 0x2D STOP ORIGIN STOP 0x2E STOP CALLVALUE STOP CALLDATACOPY STOP 0x2D STOP 0x2E STOP BALANCE STOP BALANCE STOP 0x2D STOP CALLER STOP 0x2E STOP CODECOPY STOP CALLVALUE STOP 0x2D STOP 0x2E STOP BALANCE STOP CALLDATASIZE STOP 0x2D STOP 0x2E STOP CALLVALUE STOP CODESIZE STOP 0x2D STOP 0x2E STOP ADDRESS STOP ORIGIN STOP 0x2D STOP ORIGIN STOP 0x2E STOP CALLVALUE STOP CALLDATASIZE STOP 0x2D STOP 0x2E STOP ADDRESS STOP CODECOPY STOP 0x2D STOP CALLVALUE STOP 0x2E STOP CODESIZE STOP CODECOPY STOP 0x2D STOP 0x2E STOP BALANCE STOP CALLVALUE STOP 0x2D STOP ORIGIN STOP 0x2E STOP CALLDATACOPY STOP CALLDATASIZE STOP 0x2D STOP 0x2E STOP ADDRESS STOP CALLDATALOAD STOP 0x2D STOP ORIGIN STOP 0x2E STOP CALLDATACOPY STOP CODESIZE STOP KECCAK256 STOP ADDRESS STOP 0x2D STOP CALLDATALOAD STOP 0x2E STOP CODECOPY STOP CALLDATASIZE STOP 0x2D STOP 0x2E STOP ADDRESS STOP CALLDATASIZE STOP 0x2D STOP BALANCE STOP 0x2E STOP ORIGIN STOP CALLER STOP 0x2D STOP 0x2E STOP ADDRESS STOP ORIGIN STOP 0x2D STOP ORIGIN STOP 0x2E STOP CODESIZE STOP 0x2D STOP 0x2E STOP ADDRESS STOP CALLDATALOAD STOP 0x2D STOP CALLVALUE STOP 0x2E STOP CODESIZE STOP CALLDATACOPY STOP 0x2D STOP 0x2E STOP BALANCE STOP ORIGIN STOP 0x2D STOP BALANCE STOP 0x2E STOP CALLDATASIZE STOP CALLDATACOPY STOP 0x2D STOP 0x2E STOP ADDRESS STOP CALLDATASIZE STOP 0x2D STOP CALLER STOP 0x2E STOP ADDRESS STOP CODESIZE STOP 0x2D STOP 0x2E STOP BALANCE STOP CALLER STOP 0x2D STOP CALLVALUE STOP 0x2E STOP BALANCE STOP CALLDATALOAD STOP 0x2D STOP 0x2E STOP BALANCE STOP CODESIZE STOP GAS STOP SHR STOP MULMOD KECCAK256 PUSH7 0x69006C006C00 GASPRICE STOP 0x23 STOP PUSH7 0x300064008200 SWAP10 STOP LOG2 PUSH5 0x6970667358 0x22 SLT KECCAK256 PUSH14 0x6A097EAC15868DDD0003F36103 CALLDATASIZE DUP16 0x4A 0xD6 0xD5 STATICCALL 0xC3 SHR LOG3 DUP16 BALANCE MSTORE 0x4F 0xA6 AND PUSH15 0x4064736F6C63430008000033000000 "},"methodIdentifiers":{"getDSLHex()":"ed0ac571"}}}}}