{"contracts/TraitBg.sol":{"TraitBG":{"abi":[{"inputs":[],"name":"getDSLHex","outputs":[{"internalType":"bytes","name":"data","type":"bytes"}],"stateMutability":"pure","type":"function"}],"evm":{"bytecode":{"linkReferences":{},"object":"608060405234801561001057600080fd5b506104ff806100206000396000f3fe608060405234801561001057600080fd5b506004361061002b5760003560e01c8063ed0ac57114610030575b600080fd5b61003861004e565b60405161004591906100e7565b60405180910390f35b60606000604051806103800160405280610360815260200161016a6103609139905060405191508051808352602082016020840160005b838110156100a0578083015181830152602081019050610085565b508281016040525050505090565b60006100b982610109565b6100c38185610114565b93506100d3818560208601610125565b6100dc81610158565b840191505092915050565b6000602082019050818103600083015261010181846100ae565b905092915050565b600081519050919050565b600082825260208201905092915050565b60005b83811015610143578082015181840152602081019050610128565b83811115610152576000848401525b50505050565b6000601f19601f830116905091905056fed9001600a4011700a401c400c5001e00012061002500102072006f00740061007400650028003800390020002e00350020002e0035002900c600140000401300ff00c94f8600c6001400324013009500964e8600c600140064401300e400e01886008500cf001e00012062001800000019000000160064401700644027000e207500730065007200530070006100630065004f006e005500730065003c000e207500730065007200530070006100630065004f006e00550073006500d9002b000c206600720061006300740061006c004e006f006900730065003d0012103e0003003f00650028000a20740075007200620075006c0065006e00630065009900d9002b000c206600720061006300740061006c004e006f006900730065003d002e103e0004003f000a0128001020740075007200620075006c0065006e006300650043007200610063006b0073009900d0002b00092068007500650052006f0074006100740065002c002800280003206800750065009000d0002c00272031002000300020003000200030002000300020003000200031002000300020003000200030002000300020003000200031002000300020003000200030002000300020003000200031002000300028000b2063007200610063006b00730043006f006c006f0072009000d90029000a20740075007200620075006c0065006e00630065002a000320680075006500400008206d0075006c007400690070006c00790028000b2062006100730065005000610074007400650072006e009900d90029000b2062006100730065005000610074007400650072006e002a000b2063007200610063006b00730043006f006c006f007200400008206d0075006c007400690070006c007900280003206f00750074009900d90029001020740075007200620075006c0065006e006300650043007200610063006b0073002a000d2053006f00750072006300650047007200610070006800690063000e000a0041000120520042000120470028000f2064006900730070006c00610063006500640043007200610063006b0073009900d700d600290003206f00750074009600d60029000d2053006f0075007200630065004700720061007000680069006300960097008f008400c70016006440170064400a00012061002600012062001d00fa1087009900a2646970667358221220f8d3cc1b4c435fb85940b349bd9ac74a0b6c92733839d2547e395f7fd3b558fb64736f6c63430008000033","opcodes":"PUSH1 0x80 PUSH1 0x40 MSTORE CALLVALUE DUP1 ISZERO PUSH2 0x10 JUMPI PUSH1 0x0 DUP1 REVERT JUMPDEST POP PUSH2 0x4FF DUP1 PUSH2 0x20 PUSH1 0x0 CODECOPY PUSH1 0x0 RETURN INVALID PUSH1 0x80 PUSH1 0x40 MSTORE CALLVALUE DUP1 ISZERO PUSH2 0x10 JUMPI PUSH1 0x0 DUP1 REVERT JUMPDEST POP PUSH1 0x4 CALLDATASIZE LT PUSH2 0x2B JUMPI PUSH1 0x0 CALLDATALOAD PUSH1 0xE0 SHR DUP1 PUSH4 0xED0AC571 EQ PUSH2 0x30 JUMPI JUMPDEST PUSH1 0x0 DUP1 REVERT JUMPDEST PUSH2 0x38 PUSH2 0x4E JUMP JUMPDEST PUSH1 0x40 MLOAD PUSH2 0x45 SWAP2 SWAP1 PUSH2 0xE7 JUMP JUMPDEST PUSH1 0x40 MLOAD DUP1 SWAP2 SUB SWAP1 RETURN JUMPDEST PUSH1 0x60 PUSH1 0x0 PUSH1 0x40 MLOAD DUP1 PUSH2 0x380 ADD PUSH1 0x40 MSTORE DUP1 PUSH2 0x360 DUP2 MSTORE PUSH1 0x20 ADD PUSH2 0x16A PUSH2 0x360 SWAP2 CODECOPY SWAP1 POP PUSH1 0x40 MLOAD SWAP2 POP DUP1 MLOAD DUP1 DUP4 MSTORE PUSH1 0x20 DUP3 ADD PUSH1 0x20 DUP5 ADD PUSH1 0x0 JUMPDEST DUP4 DUP2 LT ISZERO PUSH2 0xA0 JUMPI DUP1 DUP4 ADD MLOAD DUP2 DUP4 ADD MSTORE PUSH1 0x20 DUP2 ADD SWAP1 POP PUSH2 0x85 JUMP JUMPDEST POP DUP3 DUP2 ADD PUSH1 0x40 MSTORE POP POP POP POP SWAP1 JUMP JUMPDEST PUSH1 0x0 PUSH2 0xB9 DUP3 PUSH2 0x109 JUMP JUMPDEST PUSH2 0xC3 DUP2 DUP6 PUSH2 0x114 JUMP JUMPDEST SWAP4 POP PUSH2 0xD3 DUP2 DUP6 PUSH1 0x20 DUP7 ADD PUSH2 0x125 JUMP JUMPDEST PUSH2 0xDC DUP2 PUSH2 0x158 JUMP JUMPDEST DUP5 ADD SWAP2 POP POP SWAP3 SWAP2 POP POP JUMP JUMPDEST PUSH1 0x0 PUSH1 0x20 DUP3 ADD SWAP1 POP DUP2 DUP2 SUB PUSH1 0x0 DUP4 ADD MSTORE PUSH2 0x101 DUP2 DUP5 PUSH2 0xAE JUMP JUMPDEST SWAP1 POP SWAP3 SWAP2 POP POP JUMP JUMPDEST PUSH1 0x0 DUP2 MLOAD SWAP1 POP SWAP2 SWAP1 POP JUMP JUMPDEST PUSH1 0x0 DUP3 DUP3 MSTORE PUSH1 0x20 DUP3 ADD SWAP1 POP SWAP3 SWAP2 POP POP JUMP JUMPDEST PUSH1 0x0 JUMPDEST DUP4 DUP2 LT ISZERO PUSH2 0x143 JUMPI DUP1 DUP3 ADD MLOAD DUP2 DUP5 ADD MSTORE PUSH1 0x20 DUP2 ADD SWAP1 POP PUSH2 0x128 JUMP JUMPDEST DUP4 DUP2 GT ISZERO PUSH2 0x152 JUMPI PUSH1 0x0 DUP5 DUP5 ADD MSTORE JUMPDEST POP POP POP POP JUMP JUMPDEST PUSH1 0x0 PUSH1 0x1F NOT PUSH1 0x1F DUP4 ADD AND SWAP1 POP SWAP2 SWAP1 POP JUMP INVALID 0xD9 STOP AND STOP LOG4 ADD OR STOP LOG4 ADD 0xC4 STOP 0xC5 STOP 0x1E STOP ADD KECCAK256 PUSH2 0x25 STOP LT KECCAK256 PUSH19 0x6F0074006100740065002800380039002000 0x2E STOP CALLDATALOAD STOP KECCAK256 STOP 0x2E STOP CALLDATALOAD STOP 0x29 STOP 0xC6 STOP EQ STOP STOP BLOCKHASH SGT STOP SELFDESTRUCT STOP 0xC9 0x4F DUP7 STOP 0xC6 STOP EQ STOP ORIGIN BLOCKHASH SGT STOP SWAP6 STOP SWAP7 0x4E DUP7 STOP 0xC6 STOP EQ STOP PUSH5 0x401300E400 0xE0 XOR DUP7 STOP DUP6 STOP 0xCF STOP 0x1E STOP ADD KECCAK256 PUSH3 0x1800 STOP STOP NOT STOP STOP STOP AND STOP PUSH5 0x4017006440 0x27 STOP 0xE KECCAK256 PUSH22 0x730065007200530070006100630065004F006E0055 STOP PUSH20 0x65003C000E2075007300650072005300700061 STOP PUSH4 0x65004F STOP PUSH15 0x550073006500D9002B000C206600 PUSH19 0x61006300740061006C004E006F0069007300 PUSH6 0x3D0012103E STOP SUB STOP EXTCODEHASH STOP PUSH6 0x28000A2074 STOP PUSH22 0x7200620075006C0065006E00630065009900D9002B STOP 0xC KECCAK256 PUSH7 0x720061006300 PUSH21 0x61006C004E006F006900730065003D002E103E00 DIV STOP EXTCODEHASH STOP EXP ADD 0x28 STOP LT KECCAK256 PUSH21 0x75007200620075006C0065006E00630065004300 PUSH19 0x610063006B0073009900D0002B0009206800 PUSH22 0x650052006F0074006100740065002C002800280003 KECCAK256 PUSH9 0x750065009000D000 0x2C STOP 0x27 KECCAK256 BALANCE STOP KECCAK256 STOP ADDRESS STOP KECCAK256 STOP ADDRESS STOP KECCAK256 STOP ADDRESS STOP KECCAK256 STOP ADDRESS STOP KECCAK256 STOP ADDRESS STOP KECCAK256 STOP BALANCE STOP KECCAK256 STOP ADDRESS STOP KECCAK256 STOP ADDRESS STOP KECCAK256 STOP ADDRESS STOP KECCAK256 STOP ADDRESS STOP KECCAK256 STOP ADDRESS STOP KECCAK256 STOP BALANCE STOP KECCAK256 STOP ADDRESS STOP KECCAK256 STOP ADDRESS STOP KECCAK256 STOP ADDRESS STOP KECCAK256 STOP ADDRESS STOP KECCAK256 STOP ADDRESS STOP KECCAK256 STOP BALANCE STOP KECCAK256 STOP ADDRESS STOP 0x28 STOP SIGNEXTEND KECCAK256 PUSH4 0x720061 STOP PUSH4 0x6B0073 STOP NUMBER STOP PUSH16 0x6C006F0072009000D90029000A2074 STOP PUSH22 0x7200620075006C0065006E00630065002A00032068 STOP PUSH22 0x6500400008206D0075006C007400690070006C0079 STOP 0x28 STOP SIGNEXTEND KECCAK256 PUSH3 0x6100 PUSH20 0x65005000610074007400650072006E009900D9 STOP 0x29 STOP SIGNEXTEND KECCAK256 PUSH3 0x6100 PUSH20 0x65005000610074007400650072006E002A000B KECCAK256 PUSH4 0x720061 STOP PUSH4 0x6B0073 STOP NUMBER STOP PUSH16 0x6C006F007200400008206D0075006C STOP PUSH21 0x690070006C007900280003206F00750074009900 0xD9 STOP 0x29 STOP LT KECCAK256 PUSH21 0x75007200620075006C0065006E00630065004300 PUSH19 0x610063006B0073002A000D2053006F007500 PUSH19 0x630065004700720061007000680069006300 0xE STOP EXP STOP COINBASE STOP ADD KECCAK256 MSTORE STOP TIMESTAMP STOP ADD KECCAK256 SELFBALANCE STOP 0x28 STOP 0xF KECCAK256 PUSH5 0x69007300 PUSH17 0x6C006100630065006400430072006100 PUSH4 0x6B0073 STOP SWAP10 STOP 0xD7 STOP 0xD6 STOP 0x29 STOP SUB KECCAK256 PUSH16 0x750074009600D60029000D2053006F STOP PUSH22 0x720063006500470072006100700068006900630096 STOP SWAP8 STOP DUP16 STOP DUP5 STOP 0xC7 STOP AND STOP PUSH5 0x4017006440 EXP STOP ADD KECCAK256 PUSH2 0x26 STOP ADD KECCAK256 PUSH3 0x1D00 STATICCALL LT DUP8 STOP SWAP10 STOP LOG2 PUSH5 0x6970667358 0x22 SLT KECCAK256 0xF8 0xD3 0xCC SHL 0x4C NUMBER 0x5F 0xB8 MSIZE BLOCKHASH 0xB3 0x49 0xBD SWAP11 0xC7 0x4A SIGNEXTEND PUSH13 0x92733839D2547E395F7FD3B558 0xFB PUSH5 0x736F6C6343 STOP ADDMOD STOP STOP CALLER "},"methodIdentifiers":{"getDSLHex()":"ed0ac571"}}}}}